:020000040800F2
:10000000E834002089230008E9230008E9230008D8
:10001000E9230008E9230008E923000800000000A4
:10002000000000000000000000000000E9230008BC
:10003000E923000800000000E92300085932000805
:10004000E9230008E9230008E9230008E923000860
:10005000E9230008E9230008E9230008E923000850
:10006000E9230008E9230008E9230008E923000840
:10007000E9230008E9230008E9230008E923000830
:10008000E9230008E9230008E9230008E923000820
:100090005D340008E9230008E923000899440008BA
:1000A000E9230008E9230008E9230008E923000800
:1000B000E9230008B1470008E9230008E923000804
:1000C000E9230008E9230008E9230008E9230008E0
:1000D000D1430008F916000885090008C107000887
:1000E000BD440008E9230008E916000800000000EC
:1000F0000000000000000000000000000000000000
:1001000000000000000000005FF808F110B5054C89
:10011000237833B9044B13B10448AFF300800123B3
:10012000237010BD5C0500200000000080730008F3
:1001300008B5064B1BB106480649AFF300800648D8
:10014000036813B1054B03B1984708BD00000000D8
:1001500080730008600500205805002000000000A2
:1001600080B485B000AF03463960FB800D4B1B683F
:100170005B8AFB60FB88002B0AD10A4B1B683A683C
:100180009188FA6892B28A1A92B21A82002303E026
:100190003B681A68FB68134418461437BD465DF87F
:1001A000047B7047A42F002080B485B000AF0346C5
:1001B000FB711A4B1B78BB600023FB601EE0FB68E1
:1001C000DBB29B0003F1804303F5B843FA68D2B277
:1001D000920002F1804202F5B842126892B21146D2
:1001E00040F60F720A4042F4004242F08002F96881
:1001F000C9B20A431A60FB680133FB60FA68BB6846
:100200009A42DCD3064BFA7962F07F02D2B21A60CE
:100210001437BD465DF8047B704700BF78000020AE
:100220004C5C004080B400AFBD465DF8047B704775
:1002300080B582B000AF78607A68784B9A420AD174
:100240004FF40060012103F0C1FD4FF40060002174
:1002500003F0BCFDDEE07B68B3F1804F08D10120E4
:10026000012103F0D1FD0120002103F0CDFDD1E0FB
:100270007A686B4B9A4208D10220012103F0C4FD39
:100280000220002103F0C0FDC4E07A68654B9A4269
:1002900008D10420012103F0B7FD0420002103F060
:1002A000B3FDB7E07A68604B9A4208D1082001217B
:1002B00003F0AAFD0820002103F0A6FDAAE07A6859
:1002C0005A4B9A4208D11020012103F09DFD1020C5
:1002D000002103F099FD9DE07A68554B9A4208D1C0
:1002E0002020012103F090FD2020002103F08CFD4F
:1002F00090E07A684F4B9A420AD14FF400500121A6
:1003000003F064FD4FF40050002103F05FFD81E035
:100310007A68494B9A420AD14FF40020012103F038
:1003200055FD4FF40020002103F050FD72E07A6883
:10033000424B9A420AD14FF48010012103F046FD4E
:100340004FF48010002103F041FD63E07A683C4BDC
:100350009A420AD14FF40010012103F037FD4FF407
:100360000010002103F032FD54E07A68354B9A42C8
:1003700008D14020012103F047FD4020002103F077
:1003800043FD47E07A68304B9A4208D18020012132
:1003900003F03AFD8020002103F036FD3AE07A6850
:1003A0002A4B9A420AD14FF48070012103F02CFDB0
:1003B0004FF48070002103F027FD2BE07A68244B76
:1003C0009A420AD14FF48030012103F0FFFC4FF430
:1003D0008030002103F0FAFC1CE07A681D4B9A4241
:1003E0000AD14FF40030012103F0F0FC4FF400304B
:1003F000002103F0EBFC0DE07A68174B9A4209D11B
:100400004FF48020012103F0E1FC4FF48020002113
:1004100003F0DCFC0837BD4680BD00BF002C014066
:100420000004004000080040000C004000100040A4
:100430000014004000340140004C014000500140D5
:100440000054014000180040001C00400020004003
:1004500000400140004401400048014080B485B0A4
:1004600000AF786039600023FB817B681B88FB81CB
:100470007A682E4B9A4213D07A682D4B9A420FD04D
:100480007B68B3F1804F0BD07A682A4B9A4207D031
:100490007A68294B9A4203D07A68284B9A4208D14D
:1004A000FB8923F07003FB813B685A88FB89134367
:1004B000FB817A68224B9A420CD07A68214B9A428F
:1004C00008D0FB8923F44073FB813B68DA88FB8901
:1004D0001343FB817B68FA891A803B689A887B68A2
:1004E0009A853B681A887B681A857A680F4B9A420E
:1004F0000FD07A680E4B9A420BD07A68124B9A4210
:1005000007D07A68114B9A4203D07A68104B9A420E
:1005100004D13B681B7A1A467B681A867B680122E5
:100520009A821437BD465DF8047B7047002C014069
:10053000003401400004004000080040000C00406E
:100540000010004000140040004001400044014001
:100550000048014080B485B000AF78603960002366
:100560007B810023FB810023BB817B681B8C9BB2BA
:1005700023F001039AB27B681A847B681B8CFB8191
:100580007B689B88BB817B681B8B7B817B8923F08D
:1005900070037B817B8923F003037B813B681A888E
:1005A0007B8913437B81FB8923F00203FB813B683A
:1005B0001A89FB891343FB813B685A88FB891343E3
:1005C000FB817A68244B9A420FD07A68234B9A4277
:1005D0000BD07A68224B9A4207D07A68214B9A4214
:1005E00003D07A68204B9A4223D1FB8923F0080379
:1005F000FB813B685A89FB891343FB81FB8923F00C
:100600000403FB813B689A88FB891343FB81BB8908
:1006100023F48073BB81BB8923F40073BB813B68E7
:100620009A89BB891343BB813B68DA89BB89134331
:10063000BB817B68BA899A807B687A891A833B6818
:10064000DA887B689A867B68FA891A841437BD46F3
:100650005DF8047B704700BF002C0140003401406E
:1006600000400140004401400048014080B483B094
:1006700000AF78607B684FF6FF729A807B6800223B
:100680001A807B680022DA807B6800225A807B68AF
:1006900000221A720C37BD465DF8047B704700BF1C
:1006A00080B483B000AF78607B6800221A807B68DA
:1006B00000225A807B6800229A807B680022DA80C0
:1006C0007B6800221A817B6800225A817B680022A5
:1006D0009A817B680022DA810C37BD465DF8047B85
:1006E000704700BF80B483B000AF78600B46FB70EA
:1006F000FB78002B08D07B681B889BB243F001037A
:100700009AB27B681A8007E07B681B889BB223F053
:1007100001039AB27B681A800C37BD465DF8047BF2
:10072000704700BF80B485B000AF78600B467B8017
:100730000023FB730023BB8100237B817B681B8A22
:100740009AB27B881340BB817B689B899AB27B8875
:1007500013407B81BB89002B05D07B89002B02D005
:100760000123FB7301E00023FB73FB7B1846143766
:10077000BD465DF8047B704780B483B000AF7860FD
:100780000B467B807B88DB439AB27B681A820C37EE
:10079000BD465DF8047B704780B400AF074B002274
:1007A0001A60064B00225A60044B00221A72034B57
:1007B00000225A72BD465DF8047B70479007002006
:1007C00080B582B000AF214840F2255103F08CFD86
:1007D0000346002B37D01D4840F2255103F0DCFDC5
:1007E0001B4B7B607B685B7A002B2AD1184B1B6804
:1007F000FF2B26D8154B9B889BB2FB707B681B6830
:10080000DBB27A681344FA789A72114B1B7A0D2B7B
:1008100006D1FB780A2B03D10D4B01225A720AE054
:100820000B4B1B7A0D2B03D1094B01225A7202E0AC
:10083000074BFA781A72064B1B685A1C044B1A6055
:1008400001E0FFF7A9FF0837BD4680BD0048004022
:100850009007002080B485B000AF03463960FB717B
:100860003B68BB600023FB730CE0BB685B78FA79E4
:100870009A4201D1FB7B09E0BB680433BB60FB7B80
:100880000133FB73FB7B042BEFD9FF23184614378E
:10089000BD465DF8047B704780B584B000AF7860DA
:1008A00039607B681B78012B2ED13B689B78002B2D
:1008B00026D02F4801F0FEFC3B68DA787B681B7C71
:1008C0009A4203D07B6800225A774EE00023FB73E4
:1008D0000AE0FB7B7A6813445B7C2648194601F0EA
:1008E000E9FCFB7B0133FB733B68DB78FA7B9A42C4
:1008F000EFD3214801F0F2FC7B6801225A7734E003
:100900007B6800225A7730E03B689B78002B03D04D
:100910007B6800225A7728E03B68DA787B681B7C8A
:100920009A4206D07B6800225A77144801F0D6FC20
:100930001BE07B6801225A77114801F0BBFC0023C1
:10094000FB730AE0FB7B7A6813445B7C0948194619
:1009500001F0B0FCFB7B0133FB733B68DB78FA7B77
:100960009A42EFD3044801F0B9FC1037BD4680BD70
:1009700090660008B466000838660008BC66000887
:10098000D466000880B582B000AF644840F64601E6
:1009900003F0AAFC0346002B0DD0604840F6460148
:1009A00003F0FAFC5E4B0122DA765D4B00225A76A8
:1009B0005B4B00221A74594840F2255103F094FC15
:1009C0000346002B00F0A680544840F2255103F066
:1009D000E3FC524B9B889BB2FB71514BDB7E002B9F
:1009E00013D04F4B0022DA76FB79552B06D14C4BB6
:1009F00001225A764B4801F05DFC8BE04A4801F039
:100A00006DFC474B00225A7684E0454B5B7E002B01
:100A10002ED0434B00225A76414B01229A76FB7925
:100A200018464249FFF716FF03461A463C4B5A73D5
:100A30003B4B00221A743A4BFA799A73FB793C4883
:100A4000194601F037FC364B1B78012B62D0344B32
:100A50005B7B334A06339B0013445B7A002B03D045
:100A60002F4B01229A7755E02D4B00229A7751E0C7
:100A70002B4B9B7E002B4DD0FB792E48194601F065
:100A800019FC274B1A7C264B5B7B254906339B00C0
:100A90000B449B7A9A422ED2214B1B7C204A134452
:100AA000FA795A741E4B1B7C0133DAB21C4B1A7450
:100AB0001B4B1A7C1A4B5B7B194906339B000B447A
:100AC0009B7A9A4226D11C4801F008FC144B5B7BB0
:100AD00006339A00124B1344073311481946FFF7A7
:100AE000DBFE0F4B00225A760D4B00229A760C4B00
:100AF0000022DA760EE0114801F0F0FB084B0022EC
:100B00001A74074B00225A76054B00229A76044B42
:100B10000022DA760837BD4680BD00BF00440040A1
:100B2000F8260020406700084867000817270020C3
:100B3000646700086C67000874670008786700083D
:100B400080B500AF154B154A126842F001021A60D9
:100B5000124A124B5968124B0B4053600F4A0F4B0D
:100B60001B6823F0847323F4803313600B4B0B4A10
:100B7000126822F480221A60084B084A526822F454
:100B8000FE025A60054B4FF41F029A6000F00CF809
:100B9000044B4FF000629A6080BD00BF001002401D
:100BA0000000FFF800ED00E080B500AF00F002F8B3
:100BB00080BD00BF80B483B000AF00237B60002302
:100BC0003B603A4B394A126842F480321A60374B24
:100BD0001B6803F400333B607B6801337B603B6838
:100BE000002B03D17B68B3F5A06FF0D12F4B1B68AE
:100BF00003F40033002B02D001233B6001E000230B
:100C00003B603B68012B4BD1294B294A126842F0CB
:100C100010021A60264B264A126822F003021A605C
:100C2000234B234A126842F002021A601F4B1F4AEC
:100C300052685A601D4B1D4A52685A601B4B1B4A32
:100C4000526842F480625A60184B184A526822F483
:100C50007C125A60154B154A526842F4E8125A60E9
:100C6000124B124A126842F080721A6000BF0F4B9A
:100C70001B6803F00073002BF9D00C4B0B4A526831
:100C800022F003025A60094B084A526842F00202FD
:100C90005A6000BF054B5B6803F00C03082BF9D1C9
:100CA0000C37BD465DF8047B704700BF0010024062
:100CB0000020024080B586B000AF0023FB70002307
:100CC000BB7000237B70FB1C3C2003211A460123D0
:100CD00002F058FFBB1C3C2004211A46012302F0FD
:100CE00051FF7B1C3C2005211A46012302F04AFFDC
:100CF000FB78012B05D1BB78022B02D17B78002B2E
:100D000008D0FB78022B0CD1BB78022B09D17B7861
:100D1000012B06D17B780948194601F0CBFA012353
:100D200008E0FB781946BB781A467B78044801F046
:100D3000C1FA002318461837BD4680BD5468000824
:100D40008C68000880B485B000AF786013460A460E
:100D5000FA70BB70FF23FB730023BB600DE0104AE9
:100D6000BB6813441B781A467B689A4202D1BB6861
:100D7000FB7305E0BB680133BB60BB68192BEEDD7C
:100D8000FB7B084AD25CFB781340DBB21A46BB7887
:100D900042FA03F318461437BD465DF8047B7047EA
:100DA000000000203027002080B586B000AF7860BA
:100DB000F970BA707B70FF23FB7500233B610DE077
:100DC0001D4A3B6913441B781A467B689A4202D13C
:100DD0003B69FB7505E03B6901333B613B69192BBE
:100DE000EEDDFB7D192B00D923E0FB7D134AD35C9C
:100DF000FB73FB78DB43DAB2FB7B1340DBB2FB73A4
:100E00007A78BB7802FA03F3DAB2FB7B1343DBB2E6
:100E1000FB737B68DAB20A4B1A70094BFA7B5A7083
:100E20003C200749022202F079FCFB7D034AF97B52
:100E3000D1541837BD4680BD000000203027002067
:100E40002C27002080B582B000AF10203021042272
:100E5000FFF778FF0346FB71FA79034B53F8223012
:100E600018460837BD4680BD1C00002080B582B002
:100E700000AF78607B68DBB2102030210422FFF7DE
:100E800093FF0837BD4680BD80B582B000AF00201B
:100E900007210022FFF756FF78607B681846083765
:100EA000BD4680BD80B582B000AF78607B68DBB2A4
:100EB000002007210022FFF777FF0837BD4680BDDD
:100EC00080B584B000AF78607B681B12FB607B68E4
:100ED000DBB2BB60BB68DBB21A20FF210022FFF748
:100EE00063FFFB68DBB21B20FF210022FFF75CFFE2
:100EF0001037BD4680BD00BF80B584B000AF7860BC
:100F00007B681B12FB607B68DBB2BB60BB68DBB23B
:100F10001C20FF210022FFF747FFFB68DBB21D20EA
:100F2000FF210022FFF740FF1037BD4680BD00BF04
:100F300080B584B000AF78607B689B10FB607B68F5
:100F400003F00303BB60BB68DBB22A20032100224D
:100F5000FFF72AFFFB68DBB22B20FF210022FFF7FF
:100F600023FF1037BD4680BD80B582B000AF2A2078
:100F700003210022FFF7E6FE78602B20FF210022EC
:100F8000FFF7E0FE38603B689A007B681343184621
:100F90000837BD4680BD00BF80B584B000AF786023
:100FA0007B689B10FB607B6803F00303BB60BB683E
:100FB000DBB22C2003210022FFF7F6FEFB68DBB238
:100FC0002D20FF210022FFF7EFFE1037BD4680BD28
:100FD00080B582B000AF2C2003210022FFF7B2FEC3
:100FE00078602D20FF210022FFF7ACFE38603B68BF
:100FF0009A007B68134318460837BD4680BD00BF82
:1010000080B58AB000AF78603960002387F8273058
:1010100007F10F033C200C211A46012302F0B2FD18
:10102000FB7B3B6207F10F033C200D211A46012395
:1010300002F0A8FDFB7BFB61FFF704FF0346BB61E9
:10104000FB691A023B6A1343BA6902FB03F31B0CE8
:101050007B61184B1B6A7A6902FB03F2164BA3FBF8
:1010600002135B097B613B687A691A60FB691A02AB
:101070003B6A13433B617B683A691A60002387F837
:10108000273004E097F82730013387F8273097F8A6
:101090002730062B08D897F82720084B33F8123052
:1010A0001A463B699A42EDD397F8273018462837FD
:1010B000BD4680BD302700201F85EB512C0000204D
:1010C00080B582B000AF00237B60FFF7DDFE3860A3
:1010D0003B6803F00103002B06D13B6843F001039A
:1010E0003B603868FFF7DEFEC82003F07DFE00F0AD
:1010F0001DF80837BD4680BD80B582B000AF002323
:101100007B60FFF7C1FE38603B6803F00203002BF1
:1011100006D13B6843F002033B603868FFF7C2FE2C
:10112000C82003F061FE0837BD4680BD80B584B09D
:1011300000AF07F108023B1D10461946FFF760FF9C
:10114000F860FB68002B0FDDFB685A1E0D4B33F86F
:1011500012301846FFF7B4FE0A4BFA6833F8123023
:101160001846FFF7C9FE09E00020FFF7A9FE054B6E
:10117000FA6833F812301846FFF7BEFE1037BD4646
:1011800080BD00BF2C00002080B584B000AFFFF709
:101190007BFE0346002B04D1084801F09FF800BFF6
:1011A00008E007F108023B1D10461946FFF728FF2B
:1011B000F8607B6818461037BD4680BD0869000896
:1011C00080B500AFFFF7D0FE03460248194601F094
:1011D00071F880BD7069000880B582B000AF78609A
:1011E0007B681846FFF7A4FE0837BD4680BD00BFE8
:1011F00080B500AFFFF7ECFE03460248194601F048
:1012000059F880BD8869000880B582B000AF786069
:101210007B681846FFF7C0FE012318460837BD4615
:1012200080BD00BF80B584B000AF0420012102F072
:1012300091FD4FF48073BB810423FB730323BB73C5
:1012400007F10C031248194601F088FB0020082121
:1012500001F0F2FC4FF480733B6000233B710C23E0
:101260007B710123BB713B46184602F0EBFD17234F
:101270003B7201237B720123BB720123FB7207F1D6
:101280000803184603F018FA1037BD4680BD00BFAA
:101290000008014080B584B000AF02460B46FA71E9
:1012A000BB712F4B1B78002B12D12E4B2E4A1A608C
:1012B0002E4800F0FFFF2B4B1B6818462C4902F00C
:1012C0003FF9274B01221A702A4801F007F8FFE77F
:1012D00000BFFFF7EFFC0346002BFAD000F050F8F8
:1012E000FFF7A0FF0023FB601AE0234AFB681344CA
:1012F0001A7807F108033C2011461A46012302F030
:1013000041FCBB68002B02DA4FF0FF3323E0BB68DF
:10131000DAB21A49FB680B441A70FB680133FB60B0
:10132000FB68192BE1DD154B64221A620020FFF7E0
:101330009DFD0020FFF7B6FDFB79002B01D0FFF7E4
:10134000BFFEBB79002B01D0FFF7D6FE0A20642137
:1013500000F042F8002318461037BD4680BD00BF9C
:10136000C4080020B42F002000540040806A000808
:10137000801A06008C6A0008000000203027002038
:1013800080B586B000AF00237B611BE07B69DAB2D9
:101390003B463C2011461A46012302F0F3FB03466C
:1013A000002B09D03B780A4879691A4600F082FF81
:1013B0000A2003F019FD02E0064800F08FFF7B6968
:1013C00001337B617B692D2BE0DD1837BD4680BD85
:1013D000946A0008AC6A000880B582B000AF7860FB
:1013E0003960234B20221A70214BF5225A703C2081
:1013F0001F49022202F092F91D4B21221A701C4B48
:1014000031225A703C201A49022202F087F9184B07
:1014100022221A70164B01225A703C2014490222D3
:1014200002F07CF9124B23221A70114B00225A70E1
:101430003C200F49022202F071F90D4B24221A7050
:101440000B4B00225A703C200949022202F066F937
:101450007B681846FFF7C0FE3B681846FFF7D4FECE
:10146000FFF7AEFEFFF7C4FE0837BD4680BD00BFE4
:101470002C27002080B500AFFFF786FE03461846F4
:1014800080BD00BF80B483B000AF0346FB710C3752
:10149000BD465DF8047B704780B500AF0E4B4FF43E
:1014A000E1321A600C4B00229A800B4B0022DA804A
:1014B000094B00221A81084B00229A81064B0C220C
:1014C0005A810020044900F031F9044840F22551C6
:1014D000012202F083FE80BD582700200038014021
:1014E00080B500AF304B1B79012B07D0022B0AD0FF
:1014F000002B0DD12D4B0022DA800DE02B4B4FF449
:101500004052DA8008E0294B4FF40052DA8003E0C1
:10151000FFF7C2FF002344E0234B5B79012B07D088
:10152000022B0AD0002B0DD1204B00221A810DE096
:101530001E4B4FF480621A8108E01C4B4FF4C062CE
:101540001A8103E0FFF7A8FF00232AE0164B9B79DE
:10155000072B02D0082B04D010E0144B00229A80F5
:1015600010E0124B1B89002B03D1104B00229A80F4
:1015700008E00E4B4FF480529A8003E0FFF78CFF97
:1015800000230EE0084B1A68084B1A60074B002234
:101590009A81064B0C225A810020044900F0C6F8BB
:1015A0000123184680BD00BF70000020582700208E
:1015B00098B500AF154B9B79072B0CD1144B1C68C9
:1015C000144802F065FE0346DBB203F07F03DAB293
:1015D000114B1A550CE00D4B9B79082B08D10C4B85
:1015E0001C680C4802F054FE0346DAB20A4B1A5546
:1015F000074B1B685A1C064B1A60054B1B68B3F55A
:10160000006F02D1024B00221A6098BD70000020CA
:101610009C080020003801406827002080B584B075
:1016200000AF0E4B1B68FB600D4B1B68BB600D4B86
:101630001B687B60FA687B681344FB60FB68002BC7
:1016400009D0F8680849082200F012F8B86807497C
:10165000042200F00DF81037BD4680BDE8F7FF1FEB
:10166000ECF7FF1FF0F7FF1F560000206600002078
:1016700080B487B000AFF860B9601346FB710023F7
:10168000FB750023FB7525E0FB681B0F092B0AD8AF
:10169000FB7D5B00BA681344FA68120FD2B2303295
:1016A000D2B21A7009E0FB7D5B00BA681344FA6895
:1016B000120FD2B23732D2B21A70FB681B01FB6034
:1016C000FB7D5B000133BA68134400221A70FB7D76
:1016D0000133FB75FA7DFB799A42D5D31C37BD46A1
:1016E0005DF8047B704700BF80B500AF4FF48020E9
:1016F00002F016FC80BD00BF80B500AF0A4840F282
:10170000255102F0F1FD0346002B01D0FFF750FFF9
:101710000548082102F0CCFD0346002B02D0024808
:1017200002F0B6FD80BD00BF0038014080B584B036
:1017300000AF03463960FB71FA792E4B53F8222033
:10174000F9792D4B53F82130134343F00103184628
:10175000012102F0FFFAFB79002B08D1FA79274B1F
:1017600053F822301846012102F0F4FA0BE0082069
:10177000012101F0F1F9FA79204B53F82230184693
:10178000012102F005FB1823FB73FA791C4B33F897
:101790001230BB810323BB73FA791A4B53F8222012
:1017A00007F10C031046194601F0D8F80423FB7327
:1017B000FA79154B33F81230BB81FA79134B53F891
:1017C000222007F10C031046194601F0C7F8FA79F8
:1017D0000F4B53F822301846396802F025FCFA798D
:1017E0000B4B53F822301846012102F0D7FC10377A
:1017F000BD4680BD046B00080C6B0008FC6A000845
:10180000146B000844000020186B00084C000020F6
:101810003C00002080B483B000AF0346FB80054A43
:10182000F9884FF6F8730B4013600C37BD465DF82E
:10183000047B7047505C004080B483B000AF024628
:101840000B46FA71BB80FB799B0003F1804303F5E3
:10185000B843FA79920002F1804202F5B842126868
:1018600092B222F4EC4222F0700291B2BA880A439A
:1018700092B292B21A600C37BD465DF8047B704795
:1018800090B482B000AF02460B46FA71BB80FB7980
:101890009B0003F1804303F5B8431B689BB223F41C
:1018A000E04323F040039CB2BB8803F010039BB2DB
:1018B000002B02D084F010039CB2BB8803F02003FD
:1018C0009BB2002B02D084F020039CB2FB799B00DA
:1018D00003F1804303F5B843034A224392B21A60EE
:1018E0000837BD4690BC70478080FFFF90B482B03F
:1018F00000AF02460B46FA71BB80FB799B0003F1F7
:10190000804303F5B8431B689BB223F4804323F064
:1019100070039CB2BB8803F480539BB2002B02D0AF
:1019200084F480539CB2BB8803F400539BB2002B19
:1019300002D084F400539CB2FB799B0003F18043F6
:1019400003F5B843034A224392B21A600837BD46F2
:1019500090BC70478080FFFF90B482B000AF034618
:10196000FB71FB799B0003F1804303F5B8431B68CF
:101970009BB223F4804323F070039CB284F4805321
:101980009CB284F400539CB2FB799B0003F180432A
:1019900003F5B843034A224392B21A600837BD46A2
:1019A00090BC70478080FFFF80B483B000AF0346D7
:1019B000FB71FB799B0003F1804202F5B842FB7991
:1019C0009B0003F1804303F5B8431B689BB223F4EB
:1019D000F8731B051B0D9BB243F07F4343F47F0359
:1019E00043F4004343F080039BB29BB213600C3777
:1019F000BD465DF8047B704780B483B000AF0246FB
:101A00000B46FA71BB800B4B1B689BB21A46FB79E5
:101A1000DB00134403F1005303F540535B00BA8825
:101A2000520892B252001A600C37BD465DF8047B32
:101A3000704700BF505C004080B483B000AF0246E6
:101A40000B46FA71BB800A4B1B689BB21A46FB79A6
:101A5000DB001A44074B13445B00BA88520892B269
:101A600052001A600C37BD465DF8047B704700BF1A
:101A7000505C00400430002080B485B000AF0246C6
:101A80000B46FA71BB801B4B1B689BB21A46FB7955
:101A9000DB001A44184B13445B00BB60BB883E2B31
:101AA00012D9BB885B09FB81BB8803F01F03002BA5
:101AB00002D1FB89013BFB81FB899B0243F400437C
:101AC0001A46BB681A600FE0BB885B08FB81BB88C5
:101AD00003F00103002B02D0FB890133FB81FB895A
:101AE0009B021A46BB681A601437BD465DF8047B3A
:101AF000704700BF505C00400630002080B584B0C5
:101B000000AF0346FB71FB79FB73FB7B9BB207487D
:101B1000194602F0ABFB00BF0448402102F0C8FBAD
:101B20000346002BF8D01037BD4680BD0038014079
:101B300080B588B000AFF860C7E90023BB6AFB61DD
:101B40000023BB61FB6A03F48073002B0ED0D7E93E
:101B50000023002A73F1000108DA0123BB61D7E9F1
:101B60000023524263EB4303C7E90023FB69013BB7
:101B7000FB61FB69FA68134400221A7024E0D7E97C
:101B80000023104619464FF00A024FF0000304F0FC
:101B9000A5F813467B61D7E90023104619464FF09C
:101BA0000A024FF0000304F099F802460B46C7E919
:101BB0000023FB69013BFB61FB69FA6813447A6906
:101BC000D2B23032D2B21A70D7E90023002B08BF4C
:101BD0000A2AD4D2FB69013BFB61FB69FA68134412
:101BE0003A783032D2B21A70BB69002B08D0FB6948
:101BF000013BFB61FB69FA6813442D221A700CE06B
:101C0000FB6A03F08003002B07D0FB69013BFB61FB
:101C1000FB69FA6813442B221A70FB69FA681344B3
:101C200018462037BD4680BD80B483B000AF7860D1
:101C30000B46FB707B68FA781A70012318460C3744
:101C4000BD465DF8047B704780B485B000AF786016
:101C500039600023FB600AE07B685A1C7A603A68AE
:101C6000511C396012781A70FB680133FB603B68C5
:101C70001B78002BF0D1FB6818461437BD465DF881
:101C8000047B704780B586B000AFF8607A603B6037
:101C90000B46FB7200237B617B68013B7B603B68EA
:101CA000092B10D93A681E4BA3FB0213DB08FA7A02
:101CB000F86811467A68FFF7E5FF78617B69FA6892
:101CC0001344FB6011E00DE0FB7AF8681946FFF75A
:101CD000ABFFFB680133FB607B6901337B617B6891
:101CE000013B7B607B68002BEEDC39680C4BA3FB6F
:101CF0000123DA0813469B0013445B00CA1AD3B2CF
:101D00003033DBB2F8681946FFF78EFF03467A6975
:101D100013447B617B6918461837BD4680BD00BF00
:101D2000CDCCCCCC80B586B000AFF8607A603B609B
:101D30000B46FB7200237B613B68002B03DA3B6898
:101D40005B423B6101E03B683B617B68013B7B6040
:101D50003B69092B21D93B68002B0DDA3A692F4BDF
:101D6000A3FB0213DB085B42FA7AF86811467A6833
:101D7000FFF7D8FF78610BE03A69284BA3FB021309
:101D8000DB08FA7AF86811467A68FFF7CBFF7861CA
:101D90007B69FA681344FB6026E03B68002B03DA9A
:101DA0007B68013B7B600EE00DE0FB7AF86819462A
:101DB000FFF73AFFFB680133FB607B6901337B610E
:101DC0007B68013B7B607B68002BEEDC3B68002B73
:101DD0000ADAF8682D21FFF727FF03467A691344D2
:101DE0007B61FB680133FB6039690C4BA3FB01236A
:101DF000DA0813469B0013445B00CA1AD3B230338F
:101E0000DBB2F8681946FFF70FFF03467A691344FF
:101E10007B617B6918461837BD4680BDCDCCCCCCE4
:101E200080B588B002AFF8607A600A46FA72BB7279
:101E300000237B617B68013B7B603B6A1B09002BB5
:101E400012D03B6A1909FA7ABB7A0091F8681146F8
:101E50007A68FFF7E5FF03467A6913447B617B6983
:101E6000FA681344FB6011E00DE0FB7AF86819464C
:101E7000FFF7DAFEFB680133FB607B6901337B61AE
:101E80007B68013B7B607B68002BEEDC3B6A03F0E8
:101E90000F03092B0BD83B6ADBB203F00F03DBB255
:101EA0003033DBB2F8681946FFF7BEFE19E0BB7AA3
:101EB000002B0BD03B6ADBB203F00F03DBB23733EE
:101EC000DBB2F8681946FFF7AFFE0AE03B6ADBB207
:101ED00003F00F03DBB25733DBB2F8681946FFF7A4
:101EE000A3FE7B6901337B617B6918461837BD46C9
:101EF00080BD00BF80B590B002AFF8600B467A603D
:101F0000FB7200237B6307F11003202200924FF441
:101F1000807201921846D7E91023FFF709FE386353
:101F2000F868396B04F036FA386B04F091FA03461E
:101F30007B637B6B18463837BD4680BD90B58BB050
:101F400002AFF860B9607A603B600023BB61002398
:101F50007B61FB68002B03D0FB6800221A7023E131
:101F600022E17B681B78252B0BD0FB685A1CFA609A
:101F70007A68511C796012781A707B6901337B6131
:101F800012E17B6801331B78252B0BD1FB685A1CAF
:101F9000FA6025221A707B6802337B607B6901330B
:101FA0007B6101E12023FB770023BB777B68013352
:101FB0007B607B681B78302B05D13023FB777B68F7
:101FC00001337B600FE00EE0BB7F1A4692001344A2
:101FD0005B00DAB27B681B781344DBB2303BBB7723
:101FE0007B6801337B607B681B782F2B03D97B6870
:101FF0001B78392BE8D9BA7F7B6913441A46BB6832
:102000009A4205D9BB68DAB27B69DBB2D31ABB77D7
:102010007B681B784C3B2C2B00F2B88001A252F855
:1020200023F000BF672100088D2100088D210008E2
:102030008D2100088D2100088D2100088D210008C8
:102040008D2100088D2100088D2100088D210008B8
:102050008D210008212100088D2100088D21000814
:102060008D2100088D2100088D2100088D21000898
:102070008D2100088D2100088D2100088D21000888
:1020800051210008D92000088D2100088D21000869
:102090008D2100088D210008D92000088D2100081D
:1020A0008D2100088D2100088D2100088D21000858
:1020B0008D2100088D2100088D2100088D21000848
:1020C0003D2100088D210008EF2000088D21000827
:1020D0008D21000805210008BA7F3B68191D396071
:1020E0001B68F97FF868FFF71DFEB86151E0BA7F01
:1020F0003B68191D39601B68F97FF868FFF7C2FD5E
:10210000B86146E0BA7F3B68191D39601968FB7FEA
:102110000091F86819460023FFF782FEB86138E0A5
:10212000BA7F3B68191D39601968FB7F0091F86818
:1021300019460123FFF774FEB8612AE03B681A1DB7
:102140003A601B68F8681946FFF77EFDB86120E029
:102150003B681A1D3A601B68DBB2F8681946FFF746
:1021600063FDB86115E0BC7F3B68073323F00703CC
:1021700003F108023A60D3E90023F97FCDE9002397
:10218000F8682246FFF7B6FEB86102E04FF0FF3371
:1021900025E07B6801337B60BB69FA681344FB6010
:1021A0007A69BB6913447B617B681B78002B04D080
:1021B0007A69BB689A42FFF4D4AE7A69BB689A42E6
:1021C00003D2FB6800221A7008E0FB68013BFB6049
:1021D000FB6800221A707B69013B7B617B691846B2
:1021E0002437BD4690BD00BF80B584B000AFF86015
:1021F000B9607A60F8684FF48071BA687B68FFF75D
:102200009DFE034618461037BD4680BDB0B5CEB022
:1022100000AF07F10C03186007F1080319603B1DBC
:102220001A6007F11402174B14461D460FCD0FC458
:102230000FCD0FC42B68236007F1380107F10802A6
:102240003B1D084611681A68FFF7CEFF0346FF2BB7
:1022500009DD0D4B1B68DB6807F1140210461946B7
:1022600000F06EF8FEE707F1380207F10C031046A4
:10227000196800F065F80346184607F59C77BD46D7
:10228000B0BD00BFDC6B00084805002080B582B0FF
:1022900000AF78603960064B1B689B681846796808
:1022A0003A68FFF7B3FF034618460837BD4680BDBE
:1022B000480500200FB480B582B000AF07F11403C9
:1022C0003B6038693968FFF7E1FF78607B68184642
:1022D0000837BD46BDE8804004B0704780B582B085
:1022E00000AF7860054B1B689B687868194600F062
:1022F00027F8034618460837BD4680BD480500202C
:1023000080B582B000AF786039600C4B1B689A686A
:102310003B689A4205D0094B1B68DA683B689A42D1
:1023200006D17B68DBB21846FFF7E8FB7B6801E06B
:102330004FF0FF3318460837BD4680BD48050020E2
:1023400080B584B000AF786039600023FB6012E094
:102350007B681B7818463968FFF7D2FF0346B3F154
:10236000FF3F02D14FF0FF330AE0FB680133FB600F
:102370007B6801337B607B681B78002BE8D1FB68AE
:1023800018461037BD4680BD80B582B000AF114BF6
:102390007B60114B3B6007E03B681A1D3A607A682E
:1023A000111D796012681A603A680C4B9A42F3D397
:1023B0000B480C494FF000028842B8BF40F8042B8C
:1023C000FFF6FAAFFEF7BCFB00F0CCFF0837BD46C6
:1023D00080BD00BF88730008000000205C0500205D
:1023E0005C050020E830002080B400AFFEE700BFAD
:1023F00080B485B000AFF8600B467A60FB72FB7A60
:10240000FA681B331B0113441B68DBB203F004039F
:10241000DAB27B681A727B681B7A002B09D1FB7ACF
:10242000FA681B331B0113441B685A0D7B681A6042
:1024300008E0FB7AFA681B331B0113441B68DA08B7
:102440007B685A60FB7AFA681B331B0113441B68D4
:10245000DBB203F00203DAB27B685A72FB7AFA68E5
:102460001B331B0113445B68DBB203F00F03DAB2CA
:102470007B689A72FB7AFA681B331B0113445B6812
:102480001B0ADAB27B68DA74FB7AFA681B01134420
:1024900003F5DC731B68DAB27B68DA72FB7AFA68E0
:1024A0001B01134403F5DC731B681B0ADAB27B685B
:1024B0001A73FB7AFA681B01134403F5DC731B687B
:1024C0001B0CDAB27B685A73FB7AFA681B0113445F
:1024D00003F5DC731B681B0EDAB27B689A73FB7A18
:1024E000FA681B01134403F5DC735B68DAB27B689E
:1024F000DA73FB7AFA681B01134403F5DC735B683B
:102500001B0ADAB27B681A74FB7AFA681B0113445F
:1025100003F5DC735B681B0CDAB27B685A74FB7AD8
:10252000FA681B01134403F5DC735B681B0EDAB217
:102530007B689A74FB7A002B06D1FB68DB6843F05A
:102540002002FB68DA6005E0FB681B6943F02002AB
:10255000FB681A611437BD465DF8047B704700BF05
:1025600080B483B000AF78600B46FB70FB78002B23
:1025700006D17B68DB6843F020027B68DA6005E007
:102580007B681B6943F020027B681A610C37BD46EB
:102590005DF8047B704700BF80B584B000AF786001
:1025A00039600023FB737B685A693B681340002B3A
:1025B00000F0B2803B68402B62D0402B0FD8042B38
:1025C0003AD0042B04D8012B24D0022B2BD09FE02F
:1025D000102B43D0202B4AD0082B36D098E0B3F5EF
:1025E000006F00F08380B3F5006F09D8B3F5007F6A
:1025F0006AD0B3F5806F70D0B3F5807F5BD087E091
:10260000B3F5803F45D0B3F5003F4BD0B3F5004F55
:1026100075D07DE07B689B681846434900F0F4F86C
:102620000346FB7377E07B68DB681846032100F004
:10263000EBF80346FB736EE07B68DB681846082105
:1026400000F0E2F80346FB7365E07B68DB68184640
:10265000102100F0D9F80346FB735CE07B681B692E
:102660001846032100F0D0F80346FB7353E07B6863
:102670001B691846082100F0C7F80346FB734AE0BF
:102680007B681B691846102100F0BEF80346FB73F7
:1026900041E07B685B681846082100F0B5F8034606
:1026A000FB7338E07B685B681846102100F0ACF8DB
:1026B0000346FB732FE07B689B691846012100F0FD
:1026C000A3F80346FB7326E07B689B69184602214A
:1026D00000F09AF80346FB731DE07B689B6918467F
:1026E000042100F091F80346FB7314E07B689B69BA
:1026F0001846702100F088F80346FB730BE07B68F6
:102700005B681846042100F07FF80346FB7302E083
:102710000023FB7300BF01E00023FB73FB7B184623
:102720001037BD4680BD00BF0101010080B483B0F9
:1027300000AF786039603B68B3F5807F43D0B3F574
:10274000807F0DD8082B2AD0082B04D8012B1ED04F
:10275000042B20D051E0202B25D0402B27D04CE05B
:10276000B3F5006F3BD0B3F5006F06D8B3F5007F2B
:102770002DD0B3F5806F2ED03FE0B3F5803F1AD057
:10278000B3F5003F1BD0B3F5004F2FD035E07B6889
:102790001C4A9A6031E07B680822DA602DE07B6891
:1027A0001022DA6029E07B6808221A6125E07B6844
:1027B00010221A6121E07B6808225A601DE07B68C4
:1027C00010225A6019E07B6804225A6015E07B6889
:1027D00004225A6011E07B6804225A600DE07B6895
:1027E00000229A617B6804225A6006E07B6800221E
:1027F0009A617B6804225A6000BF0C37BD465DF8C1
:10280000047B70470101010080B485B000AF78609F
:1028100039600023FB737A683B681340002B02D0B9
:102820000123FB7301E00023FB73FB7B1846143785
:10283000BD465DF8047B704780B582B000AF0520CF
:10284000012101F087FA3B1D184600F043F91823D7
:10285000FB710123BB714023BB803B1D054819461A
:1028600000F07CF80220012101F092FA0837BD4601
:1028700080BD00BF0008014080B588B000AF164899
:10288000FDF7D6FC0220012101F082FA07F11403C2
:102890001846FDF7EBFE4723BB8244F620633B83DB
:1028A00007F114030C481946FDF7D8FD3B1D1846E7
:1028B000FDF7F6FE00237B816023BB800123FB80B4
:1028C0003B1D05481946FDF745FE03480121FDF76C
:1028D00009FF2037BD4680BD0004004080B485B0AC
:1028E00000AF0346FB80104BFA881A80FB884FF438
:1028F0007A7202FB03F30D4A82FB03121A44D211CF
:10290000DB17D31A9BB2C3F594433833FB81084AD3
:10291000FB89C3F59C4320339BB293861437BD4695
:102920005DF8047B704700BF702F0020B7600BB6C6
:102930000004004080B500AFFFF77EFFFFF79CFF6B
:1029400080BD00BF80B582B000AF78607B689BB26D
:102950001846FFF7C3FF0837BD4680BD80B489B075
:1029600000AF786039600023FB6100233B610023E6
:10297000BB610023FB6000237B610023BB603B68DD
:10298000DB7803F00F03FB613B68DB7803F0100397
:10299000002B04D03B689B78FA691343FB613B68CA
:1029A0001B88DBB2002B44D07B681B687B61002353
:1029B000BB6138E0BB69012202FA03F3FB603B68AC
:1029C0001B881A46FB6813403B613A69FB689A42D0
:1029D00026D1BB699B00FB60FB680F2202FA03F360
:1029E000BB60BB68DB437A6913407B61FB68FA69B3
:1029F00002FA03F37A6913437B613B68DB78282B87
:102A000005D1BB6901229A407B685A6108E03B68A6
:102A1000DB78482B04D1BB6901229A407B681A619C
:102A2000BB690133BB61BB69072BC3D97B687A697A
:102A30001A603B681B88FF2B46D97B685B687B610B
:102A40000023BB613AE0BB690833012202FA03F3B9
:102A5000FB603B681B881A46FB6813403B613A6980
:102A6000FB689A4227D1BB699B00FB60FB680F2281
:102A700002FA03F3BB60BB68DB437A6913407B61F6
:102A8000FB68FA6902FA03F37A6913437B613B68D6
:102A9000DB78282B05D1BB69083301229A407B687B
:102AA0005A613B68DB78482B05D1BB6908330122AA
:102AB0009A407B681A61BB690133BB61BB69072B14
:102AC000C1D97B687A695A602437BD465DF8047BBA
:102AD000704700BF80B483B000AF78607B684FF66A
:102AE000FF721A807B6802229A707B680422DA7077
:102AF0000C37BD465DF8047B704700BF80B483B0DF
:102B000000AF78600B467B807A887B681A610C374F
:102B1000BD465DF8047B704780B483B000AF786039
:102B20000B467B807A887B685A610C37BD465DF81E
:102B3000047B704780B483B000AF78600B467B8025
:102B40007B68DA687B885A407B68DA600C37BD4660
:102B50005DF8047B704700BF80B487B000AF786039
:102B60000B46FB7000233B610023FB6000237B616D
:102B70000023BB607B68002B03DA2E4BDB697B6193
:102B800002E02C4B5B687B617B6803F470231B0CB9
:102B9000BB607B689BB23B617B6803F44013B3F579
:102BA000401F0AD17B6923F070637B61214B214A6E
:102BB000526822F070625A6021E07B6803F480134F
:102BC000002B0ED0BB68032202FA03F3FB60FB6804
:102BD000DB437A6913407B617B6943F070637B61FF
:102BE0000DE07B685B0D1B013A6902FA03F3DB43DE
:102BF0007A6913407B617B6943F070637B61FB788A
:102C0000002B08D07B685B0D1B013A6902FA03F3C5
:102C10007A6913437B617B68002B03DA054B7A6981
:102C2000DA6102E0034B7A695A601C37BD465DF8F1
:102C3000047B70470000014090B484B000AF0246AE
:102C40000B46FA71BB710023FB60BB7903F00303F1
:102C50009B000F2202FA03F3FB60154BBA7992082E
:102C6000D2B21349B8798008C0B2023051F82000BE
:102C7000F968C9430140023243F822100C4BBA797B
:102C80009208D2B20A49B8798008C0B2023051F82D
:102C90002000FC79B97901F00301890004FA01F1FF
:102CA0000143023243F822101037BD4690BC7047F2
:102CB0000000014080B500AFFEF7B0FC064B1B687A
:102CC00000229A7200F0AAF901F0CCFBFEF7E4FBB7
:102CD000024B00221A6080BDA42F0020B008002003
:102CE00080B500AF364B1B6800229A72344B1B68CC
:102CF000344AD2795A72324B1B680022DA720020B1
:102D0000FEF788FD00204FF40071FEF795FD0020CE
:102D10001021FEF7B5FD00204021FEF78DFE0020BA
:102D20008021FEF769FE0020FEF73EFE264B93F859
:102D30002C3000201946FEF79FFE0020FEF70CFE07
:102D400001200021FEF778FD0120C021FEF754FE8E
:102D500001202021FEF794FD01200021FEF7C6FD91
:102D600002204FF4C061FEF767FD02204FF480712E
:102D7000FEF742FE02200021FEF7B8FD02202021CE
:102D8000FEF77EFD03200021FEF756FD03204FF4E1
:102D90008871FEF751FE03204021FEF76DFE0320EF
:102DA0004FF44051FEF7A2FD03200021FEF768FD1D
:102DB0000020FDF7F9F9054B01221A6080BD00BF24
:102DC000A42F0020386B00087C000020B0080020F1
:102DD00080B483B000AF074B7B607B689B7A002B8D
:102DE00002D0054B05221A600C37BD465DF8047B06
:102DF000704700BF842F0020B008002080B400AFCF
:102E0000034B04221A60BD465DF8047B704700BF87
:102E1000B008002080B500AF044B1B78202B04D1F4
:102E2000FEF75EFB014B00221A7080BDAC0800204B
:102E300080B400AFBD465DF8047B704780B584B0B8
:102E400000AF0346FB710023FB60FB79212B09D106
:102E5000164B1B681B7803F07F03212B11D1144BF9
:102E6000FB600EE0FB79202B0BD1104B1B681B780D
:102E700003F07F03212B01D10E4BFB600E4B202270
:102E80001A70FB68002B01D102230BE0074B1B6873
:102E9000FA689A61054B1B6800225A82FB68002081
:102EA0009847002318461037BD4680BDA42F002048
:102EB000B52F0008E92F0008AC08002080B483B0CB
:102EC00000AF0346FB710C4B1B681B7803F07F03BC
:102ED000212B09D1FB79022B01D1002305E0FB79DD
:102EE000222B01D1002300E0022318460C37BD46F7
:102EF0005DF8047B704700BFA42F002080B582B02E
:102F000000AF0346FB80FB8818460449FDF728F90B
:102F1000034618460837BD4680BD00BFD0000020DC
:102F200080B582B000AF0346FB80FB881846044999
:102F3000FDF716F9034618460837BD4680BD00BFA9
:102F4000D800002080B584B000AF0346FB800B4B57
:102F50001B68DB78FB73FB7B042B01D9002309E0A2
:102F6000FB7BDA00064B1344FA8810461946FDF73E
:102F7000F7F8034618461037BD4680BDA42F002041
:102F8000E000002080B483B000AF02460B46FA7127
:102F9000BB71BB79002B01D0022305E0FB79012B2B
:102FA00001D9022300E0002318460C37BD465DF826
:102FB000047B704780B483B000AF0346FB80FB887E
:102FC000002B05D1064B1B6808221A82002300E063
:102FD000044B18460C37BD465DF8047B704700BFB4
:102FE000A42F00207000002080B483B000AF0346FF
:102FF000FB80FB88002B05D1064B1B6808221A8238
:10300000002300E0044B18460C37BD465DF8047BF6
:10301000704700BFA42F00207000002080B582B050
:1030200000AF0120FEF72EFA0123FB800C4BFA883B
:103030001A600C4B00221A80094B0A4A12881A6047
:10304000094B00221A60074B4FF4E0521A80044BE0
:10305000044A12881A60002318460837BD4680BD0E
:10306000405C0040A82F0020445C004080B483B046
:1030700000AF03463960FB7197F90730002B0BDA7C
:103080000D49FB7903F00F03043B3A68D2B21201F9
:10309000D2B20B441A7609E0084997F907303A682A
:1030A000D2B21201D2B20B4483F800230C37BD46D2
:1030B0005DF8047B704700BF00ED00E000E100E038
:1030C00080B582B000AF78607B68B3F1807F01D3B8
:1030D000012311E00A4B7A6822F07F42013A5A60DC
:1030E0004FF0FF300F21FFF7C1FF054B00229A6020
:1030F000034B07221A60002318460837BD4680BDDF
:1031000010E000E080B582B000AF0920012100F09E
:1031100021FE0B480121FFF71FFD1823BB80102360
:10312000FB710323BB713B1D06481946FFF716FCD4
:1031300004481821FFF7E2FC0837BD4680BD00BFF8
:1031400000023000000C014080B582B000AF0920C1
:10315000012100F0FFFD0B480121FFF7FDFC1823C2
:10316000BB801023FB710323BB713B1D064819462E
:10317000FFF7F4FB04481821FFF7CEFC0837BD46E3
:1031800080BD00BF00023000000C014080B588B057
:1031900000AF78602A4B00221A60042001F0ECFA9C
:1031A00007F10C03184600F023FD7B68012B08D1C2
:1031B0003A69244BA3FB02139B0C1846FFF780FFD0
:1031C00032E07B680A2B09D13B695A091E4BA3FBED
:1031D0000213DB091846FFF773FF25E07B68642BB9
:1031E00008D13A69194BA3FB02135B0B1846FFF792
:1031F00067FF19E07B68B3F57A7F08D13A69144B11
:10320000A3FB02139B091846FFF75AFF0CE07A68EC
:1032100042F210739A4207D13A690E4BA3FB021394
:103220005B091846FFF74CFF4FF0FF300021FFF716
:103230001DFF0A2001F0D8FD2037BD4680BD00BF2C
:10324000BC08002083DE1B43C55A7C0A5917B7D13E
:10325000D34D62101F85EB5180B400AF0B4B1B6840
:103260005A1C0A4B1A60094B1A68094BA3FB02133C
:103270005B09642101FB03F3D31A002B02D1054B38
:1032800001221A60BD465DF8047B7047BC0800202F
:103290001F85EB51C008002080B500AF4FF4E1302E
:1032A00001F052FD642001F09FFD0348FFF716F87E
:1032B0000248FFF713F880BD346C0008606C00080A
:1032C00080B586B000AFFDF73BFC0A2001F08CFD15
:1032D00000F07EFC0346FB753B46184600F088FC78
:1032E000FFF7DAFF3B6806481946FEF7E3FF7B6805
:1032F00004481946FEF7DEFF1837BD4680BD00BF03
:10330000906C0008B06C000880B400AF124B1B78C2
:1033100003F00803002B18D0104B1B7803F00F03A9
:103320001B029AB20E4B1B78DB08DBB213439AB236
:10333000094B1B785B019BB2DBB29BB201339BB2A2
:103340009BB213439BB29BB200E000231846BD46DC
:103350005DF8047B704700BFE8FF0FE0D0FF0FE08F
:10336000E4FF0FE080B588B000AF0023FB61FFF7FA
:10337000A7FFFFF7C9FF03467B837A8B40F2A37355
:103380009A4203D12A48FEF7A9FF04E07B8B294823
:103390001946FEF78FFF42F21070FFF7F7FE264B3B
:1033A0001B78002B02D1254B254A1A602548FEF7D1
:1033B00081FF224B1B681846234900F0C1F81E4BC1
:1033C00001221A7001200121FDF764FF01F0C2F80B
:1033D000FFF7B0FAFEF74EF878617B69312B06DC17
:1033E0001A487969FEF766FFFFF78CFE05E018487A
:1033F0007969FEF75FFFFFF7A7FE01F005F9386175
:103400003B691D2B07DC13483969FEF753FF002089
:10341000FFF798FA06E010483969FEF74BFF2D20B8
:10342000FFF790FA4FF47A7001F0DEFCD2E700BFAC
:10343000806D0008986D0008C4080020B42F00209B
:1034400000540040AC6D0008801A0600C86D0008EA
:10345000E46D0008046E00082C6E000880B500AF13
:1034600030480221FFF798F80346002B32D02D4850
:103470000221FFF75BF92C4B0022C3F884202A4B72
:103480000022C3F88820284B002283F88C20264B8A
:10349000002283F88E20244B002283F89720224BB1
:1034A000002283F88F20204B002283F890201D48B3
:1034B00000211E4AFEF79CFF1D48FEF70FFF1A4B26
:1034C00093F88030002B04D1174B012283F8802021
:1034D00026E025E013484FF48061FFF75DF80346CE
:1034E000002B07D0104B022283F880201148FEF7F2
:1034F000F5FE15E00B480421FFF74EF80346002BBC
:1035000007D008480021FFF72BF80B48FEF7E6FE2E
:1035100006E0054B002283F880200848FEF7DEFE17
:1035200080BD00BF00640040DC2F00206030002020
:10353000487100085071000858710008687100084F
:1035400080B588B000AF786039601F4B7A681A6028
:103550004FF40010012100F01BFC0920012100F0B4
:10356000F9FB02200021FFF7F7FA1C23FB77C023A9
:10357000BB830323BB7707F11C0314481946FFF7ED
:10358000EDF9786801F0DAF97868002101F0BAFA0B
:103590003B68FB6000233B824BF6FF737B8200237A
:1035A000BB824FF48063FB824FF480433B8307F17F
:1035B0000C037868194601F0E3F97868012101F0FD
:1035C000A1FA2037BD4680BDB42F0020000C014079
:1035D00080B483B000AF786013460A46FA70BB70BF
:1035E000BB78002B04D0FB7843F00103FB7003E0B1
:1035F000FB7823F00103FB70FB789AB27B681A8298
:103600000C37BD465DF8047B704700BF80B584B0C1
:1036100000AF02460B46FA71BB710023FB6000232A
:10362000FB7241F2FF73FB6005E0FB685A1EFA6013
:10363000002B00D15EE0344B1B6818464FF400317C
:1036400001F04EFB0346002BEFD12F4B1B681846B1
:10365000012101F077FA0123FB7241F2FF73FB6055
:1036600005E0FB685A1EFA60002B00D142E0264BB1
:103670001B681846254901F003FB0346002BF0D0D8
:10368000214B1968FA79BB79084611461A46FFF7AB
:103690009FFF0323FB72BB79002B13D141F2FF7311
:1036A000FB6005E0FB685A1EFA60002B00D121E0A8
:1036B000154B1B681846164901F0E2FA0346002B29
:1036C000F0D015E0BB79012B12D141F2FF73FB6002
:1036D00005E0FB685A1EFA60002B00D10AE00A4B95
:1036E0001B6818460B4901F0CBFA0346002BF0D0BB
:1036F000012305E0FB7A08481946FEF7DBFD0023AD
:1037000018461037BD4680BDB42F002001000300CD
:1037100082000700020003009C71000880B586B09B
:1037200000AF396013460246FA71BB7100237B611A
:103730000023BB600023FB73FB7918460021FFF7D1
:1037400065FFB860BB68002B04D14648FEF7C6FD94
:10375000002382E0BB79002B01D101237DE000230F
:10376000FB73414B1A683B681B781046194601F001
:1037700049FA41F2FF737B6105E07B695A1E7A6169
:10378000002B00D163E0384B1B681846374901F025
:1037900077FA0346002BF0D00123FB7301233B6132
:1037A0001FE041F2FF737B6105E07B695A1E7A617D
:1037B000002B00D14BE02C4B1B6818462C4901F024
:1037C0008FFA0346002BF0D0274B1A683B69396803
:1037D0000B441B781046194601F014FA3B6901337B
:1037E0003B61BA793B699A42DBDC0223FB7341F20D
:1037F000FF737B6105E07B695A1E7A61002B00D163
:1038000025E0194B1B681846194901F069FA03466F
:10381000002BF0D00323FB73134B1B6818460121C8
:1038200001F0B0F941F2FF737B6105E07B695A1E3C
:103830007A61002B00D10AE00B4B1B6818460D493A
:1038400001F04EFA0346002BF0D1012305E0FB7B8B
:1038500009481946FEF72EFD002318461837BD46C5
:1038600080BD00BFB4710008B42F002080000700A5
:103870000400001010000010E871000890B585B039
:1038800000AF396013460246FA71BB710023FB603A
:10389000BB79002B04D19A48FEF720FD012366E195
:1038A00041F2FF73FB6005E0FB685A1EFA60002BD3
:1038B00000D15BE1934B1B6818464FF4003101F0D7
:1038C0000FFA0346002BEFD18E4B1B6818460121DF
:1038D00001F078F98B4B1B6818464FF2FF7101F02D
:1038E000AFF9884B1B681846012101F02BF941F212
:1038F000FF73FB6005E0FB685A1EFA60002B00D1E5
:1039000034E1804B1B6818467F4901F0B9F9034642
:10391000002BF0D07B4B1A68FB7910461946012228
:10392000FFF756FE41F2FF73FB6005E0FB685A1E8D
:10393000FA60002B00D119E1724B1B6818467349DD
:1039400001F0CEF90346002BF0D0BB79012B2ED12C
:103950006C4B1B681846002101F034F972B6694BB4
:103960001B681B8B674B1B681846012101F00AF985
:1039700062B641F2FF73FB6005E0FB685A1EFA6015
:10398000002B00D1F2E05F4B1B681846604901F044
:10399000A7F90346002BF0D03C68631C3B60594BF1
:1039A0001B68184601F03EF903462370C9E0BB7955
:1039B000022B3FD1534B1B6818464FF4006101F0B6
:1039C0003FF972B64F4B1B681B8B4E4B1B6818465A
:1039D000002101F0F7F862B641F2FF73FB6005E0E9
:1039E000FB685A1EFA60002B00D1BFE0454B1B68F4
:1039F0001846484901F074F90346002BF0D072B61E
:103A0000404B1B681846012101F0BCF83B685A1C6A
:103A10003A603C4A1268128A92B2D2B21A7062B606
:103A20003B685A1C3A60374A1268128A92B2D2B284
:103A30001A7086E0334B1B681B8B1CE041F2FF734E
:103A4000FB6005E0FB685A1EFA60002B00D18DE098
:103A50002C4B1B6818462F4901F042F90346002BF6
:103A6000F0D03C68631C3B60264B1B68184601F095
:103A7000D9F803462370BB795A1EBA71032BDDD1E6
:103A800041F2FF73FB6005E0FB685A1EFA60002BF1
:103A900000D16BE01B4B1B6818461E4901F020F952
:103AA0000346002BF0D0174B1B681846002101F08D
:103AB00089F872B63C68631C3B60124B1B68184661
:103AC00001F0B0F8034623700E4B1B681846012125
:103AD00001F058F862B63C68631C3B60094B1B68F8
:103AE000184601F09FF80346237041F2FF73FB6014
:103AF00012E0FB685A1EFA60002B0DD136E000BFC1
:103B0000FC710008B42F0020010003000200001027
:103B10004000001004000010174B1B68184617499E
:103B200001F0AEF80346002BE3D03C68631C3B6019
:103B3000114B1B68184601F075F8034623700023EB
:103B4000BB7141F2FF73FB6005E0FB685A1EFA602F
:103B5000002B00D10AE0084B1B681846084901F009
:103B6000BFF80346002BF0D1012300E000231846E4
:103B70001437BD4690BD00BFB42F002040000300A5
:103B80001000001080B582B000AF3A600246FA71B2
:103B90000A46BA717B71FA79BB1D1046194601229B
:103BA000FFF7BCFD0346002B01D100230CE0FA799E
:103BB0007B79104639681A46FFF760FE0346002BF2
:103BC00001D1002300E0012318460837BD4680BD1F
:103BD00080B400AF054B5B68DBB203F00C03DBB2D3
:103BE0001846BD465DF8047B704700BF00100240D8
:103BF00080B487B000AF786000237B6100233B6115
:103C00000023FB600023BB604D4B5B6803F00C039B
:103C10007B617B69042B07D0082B09D0002B34D1A2
:103C20007B68484A1A6034E07B68464A1A6030E094
:103C3000434B5B6803F470133B61414B5B6803F4D7
:103C40008033FB603B699B0C02333B61FB68002BBC
:103C500006D13B693C4A02FB03F27B681A6013E021
:103C6000374B5B6803F40033002B06D03B69364AC0
:103C700002FB03F27B681A6006E03B69314A02FBF3
:103C800003F27B681A6004E003E07B682D4A1A6047
:103C900000BF2B4B5B6803F0F0037B617B691B0962
:103CA0007B612A4A7B6913441B78DBB2BB607B686B
:103CB0001A68BB68DA407B685A60214B5B6803F482
:103CC000E0637B617B691B0A7B61204A7B6913444B
:103CD0001B78DBB2BB607B685A68BB68DA407B68E4
:103CE0009A60174B5B6803F460537B617B69DB0A66
:103CF0007B61164A7B6913441B78DBB2BB607B682F
:103D00005A68BB68DA407B68DA600D4B5B6803F485
:103D100040437B617B699B0B7B610D4A7B6913444C
:103D20001B78DBB2BB607B68DA68BB68B2FBF3F27E
:103D30007B681A611C37BD465DF8047B704700BF85
:103D40000010024000127A0000093D00000100202E
:103D50001001002080B483B000AF78600B46FB7088
:103D6000FB78002B06D0094B084A91697A680A4310
:103D70009A6106E0054B054A91697A68D2430A4088
:103D80009A610C37BD465DF8047B70470010024015
:103D900080B483B000AF78600B46FB70FB78002BDB
:103DA00006D0094B084AD1697A680A43DA6106E00D
:103DB000054B054AD1697A68D2430A40DA610C376B
:103DC000BD465DF8047B70470010024080B483B0AC
:103DD00000AF78600B46FB70FB78002B06D0094BD8
:103DE000084AD1687A680A43DA6006E0054B054A5A
:103DF000D1687A68D2430A40DA600C37BD465DF874
:103E0000047B70470010024080B483B000AF78603C
:103E10000B46FB70FB78002B06D0094B084A116952
:103E20007A680A431A6106E0054B054A11697A6807
:103E3000D2430A401A610C37BD465DF8047B7047D7
:103E40000010024080B485B000AF78600023FB60B2
:103E5000324BFB607B689B79002B4DD02F4B2F4A58
:103E600011687A681268D2430A401A602B4B2B4AB9
:103E700051687A681268D2430A405A607B681B799D
:103E8000FA681344FB60FB68FA6811687A68126884
:103E90000A431A60214B214A91687A681268D2431A
:103EA0000A409A601D4B1D4AD1687A681268D24355
:103EB0000A40DA607B685B79102B0ED1174B174AEA
:103EC00091687A6812680A439A60144B134AD16861
:103ED0007A6812680A43DA601BE0104BFB607B686B
:103EE0005B79FA681344FB60FB68FA6811687A68CA
:103EF00012680A431A600CE07B681B79FA68134465
:103F0000FB60FB68FA6811687A681268D2430A405D
:103F10001A601437BD465DF8047B70470004014009
:103F200080B483B000AF7860034B7A685A610C3775
:103F3000BD465DF8047B70470004014080B485B045
:103F400000AF78600023FB730023BB600C4B1A6842
:103F50007B681340BB600A4B5A697B681340002B97
:103F600005D0BB68002B02D00123FB7301E00023C6
:103F7000FB73FB7B18461437BD465DF8047B704726
:103F80000004014080B483B000AF7860034B7A68CE
:103F90005A610C37BD465DF8047B70470004014050
:103FA00080B483B000AF78600B46FB70FB78002BC9
:103FB00006D07B689B6843F4A0027B689A6005E0AA
:103FC0007B689B6823F4A0027B689A600C37BD462F
:103FD0005DF8047B704700BF80B483B000AF7860A9
:103FE0007B68DB6C9BB218460C37BD465DF8047BE2
:103FF000704700BF80B485B000AF78600B46FB709F
:104000000023FB737B681A68FB781340002B02D0F7
:104010000123FB7301E00023FB73FB7B184614377D
:10402000BD465DF8047B704780B58CB000AF78600A
:1040300039600023FB620023BB6200237B62002304
:104040003B620023FB617B68FB617B681B8A9BB240
:10405000FB62FA6A4CF6FF731340FB623B68DB8835
:10406000FA6A1343FB62FB6A9AB27B681A827B6826
:104070009B899BB2FB62FA6A4EF6F3131340FB6214
:104080003B689A883B681B8913439AB23B685B89FB
:1040900013439BB2FA6A1343FB62FB6A9AB27B68D2
:1040A0009A817B689B8A9BB2FB62FA6A4FF6FF4358
:1040B0001340FB623B689B89FA6A1343FB62FB6A0D
:1040C0009AB27B689A8207F108031846FFF790FDC1
:1040D000FA69304B9A4202D17B69BB6201E03B69CD
:1040E000BB627B689B899BB29BB21BB2002B0CDA34
:1040F000BA6A13469B0013449A001A443B681B6833
:104100005B00B2FBF3F37B620BE0BA6A13469B00E1
:1041100013449A001A443B681B689B00B2FBF3F3FC
:104120007B627A6A1C4BA3FB02135B091B01FB62D7
:10413000FB6A1B09642202FB03F37A6AD31A3B620F
:104140007B689B899BB29BB21BB2002B0DDA3B6A4A
:10415000DB0003F13202104BA3FB02135B0903F0F7
:104160000703FA6A1343FB620CE03B6A1B0103F18D
:104170003202094BA3FB02135B0903F00F03FA6A37
:104180001343FB62FB6A9AB27B681A813037BD46E3
:1041900080BD00BF003801401F85EB5180B483B063
:1041A00000AF78600B46FB70FB78002B08D07B6873
:1041B0009B899BB243F400539AB27B689A8107E0D3
:1041C0007B689B899BB223F400539AB27B689A81E7
:1041D0000C37BD465DF8047B704700BF80B487B0E4
:1041E00000AF786013460A467A807B7000233B61FB
:1041F0000023FB600023BB6000237B617B687B6145
:104200007B88DBB25B09DBB23B617B8803F01F0379
:10421000FB60FB68012202FA03F3BB603B69012BE0
:1042200003D17B690C337B6109E03B69022B03D12D
:104230007B6910337B6102E07B6914337B617B789F
:10424000002B06D07B697A691168BA680A431A6044
:1042500006E07B697A691168BA68D2430A401A603D
:104260001C37BD465DF8047B704700BF80B483B047
:1042700000AF78600B467B807B88C3F308039AB25B
:104280007B689A800C37BD465DF8047B704700BFA1
:1042900080B483B000AF78607B689B889BB2C3F327
:1042A00008039BB218460C37BD465DF8047B704787
:1042B00080B485B000AF78600B467B800023FB7331
:1042C0007B681B889AB27B8813409BB2002B02D07C
:1042D0000123FB7301E00023FB73FB7B18461437BB
:1042E000BD465DF8047B704780B487B000AF78604E
:1042F0000B467B800023FB6000237B610023BB60B7
:104300000023FB747B88DBB25B09DBB2BB607B887C
:1043100003F01F037B617B69012202FA03F37B61D7
:10432000BB68012B06D17B689B899BB27A691340DD
:104330007B610FE0BB68022B06D17B681B8A9BB2B6
:104340007A6913407B6105E07B689B8A9BB27A693E
:1043500013407B617B881B0A9BB2FB60FB680122D8
:1043600002FA03F3FB607B681B889BB2FA68134078
:10437000FB607B69002B05D0FB68002B02D001237A
:10438000FB7401E00023FB74FB7C18461C37BD4620
:104390005DF8047B704700BF80B485B000AF7860E3
:1043A0000B467B800023FB810023BB817B881B0A9B
:1043B000FB81FB89012202FA03F3BB81BB89DB434A
:1043C0009AB27B681A801437BD465DF8047B70474B
:1043D00080B500AF2048602100F05AFA0346002B58
:1043E00038D000BF1C48012100F036FA0346002BEC
:1043F000F8D0194800F022FA03461A46174B5A80A3
:10440000164B9B68012B10D1144B5B681A04134B9D
:104410005B881A43114B5A60104B00229A600F4B75
:10442000DB685A1C0D4BDA6007E00C4B5B881A46C0
:104430000A4B5A60094B01229A60084B9A68074B55
:104440005B88074811461A46FDF734FF0248602191
:1044500000F05AFA80BD00BF0038004098300020BC
:104460007472000880B400AF084B00221A60084B39
:104470004FF43F421A80074B054A12881A60002306
:104480001846BD465DF8047B704700BF445C0040A1
:10449000A82F0020405C004080B500AF2020FFF72F
:1044A0004DFD0346002B05D02020FFF739FD024BC0
:1044B00001221A6080BD00BFC030002080B500AF6F
:1044C0004FF40040FFF73AFD0346002B0BD006489F
:1044D0004FF48041FEF72EFB044B01221A704FF47B
:1044E0000040FFF74FFD80BD00100140C8300020A4
:1044F00080B582B000AF02460B46FA71BB71074B24
:10450000FA791A70054BBA795A70A620034902222B
:10451000FFF704F90837BD4680BD00BF78300020A2
:1045200080B584B000AF0346B9607A60FB73BB68A6
:10453000DBB2FA7BA6201146054AFFF723FBBB68D6
:10454000786803491A4601F0AFFE1037BD4680BDBA
:104550008830002080B500AF0C48FDF7BFFE0C4B43
:104560001B7818460121FFF7C3FF0A48FDF7B6FE86
:10457000642000F029FC084B1B7818460821FFF73F
:10458000B7FF0448FDF7AAFE80BD00BFDC7200083B
:1045900015010020EC7200081401002080B584B0E1
:1045A00000AF78600623FB73164B1978FA7B07F18E
:1045B0000803084611461A46FFF7B2FF7B7A03F05C
:1045C00003031B029AB23B7A13439AB27B681A80A8
:1045D0007B680233FA7A02F00302120291B2BA7ACD
:1045E0000A4392B21A807B6804337A7B02F003029A
:1045F000120291B23A7B0A4392B21A801037BD463A
:1046000080BD00BF16010020B0B584B000AF3B1DD7
:104610001846FFF7C3FFBB881BB2184601F036F8F7
:1046200004460D46FB881BB2FA8812B202FB03F265
:104630003B891BB2398909B201FB03F313441846C5
:1046400001F024F802460B461046194600F08CFD96
:1046500002460B462046294601F0A8F902460B46C1
:104660001046194600F0D4FB02460B461046194688
:104670004FF000020E4B01F06FF802460B46104659
:10468000194609A3D3E9002301F090F902460B462D
:104690001046194601F0FAFA0346FB60FB6818461B
:1046A0001037BD46B0BD00BF7A008BFCFA2109402F
:1046B00000209C40AFF3008080B487B000AF7860EA
:1046C00000237B6100233B610F23FB607B68DB7869
:1046D000002B38D0264BDB68DB4303F4E0631B0A76
:1046E0007B617B69C3F104033B617B69FA6822FA51
:1046F00003F3FB607B685B781A463B6902FA03F3BD
:104700007B617B689B781A46FB6813407A69134388
:104710007B617B691B017B6116497B681B787A6929
:10472000D2B20B4483F80023124B7A6812785209F4
:10473000D2B27968097801F01F01012000FA01F175
:1047400043F822100EE00B4B7A6812785209D2B26D
:104750007968097801F01F01012000FA01F1203287
:1047600043F822101C37BD465DF8047B704700BF3C
:1047700000ED00E000E100E080B483B000AF7860BD
:104780007B68042B06D1094B084A126842F00402E8
:104790001A6005E0054B054A126822F004021A600F
:1047A0000C37BD465DF8047B704700BF10E000E0A9
:1047B00080B500AF1E480121FBF7B4FF0346002B74
:1047C00035D01B480121FBF7D7FF1A480121FFF71D
:1047D000E7FB00BF17480221FFF70CFC0346002B44
:1047E000F8D01448FFF7F8FB03461A46124BA3F81B
:1047F0002C22114B9B69DBB20F4AB2F82C220E49D6
:1048000014335B000B449A800B4B9B695A1C0A4B78
:104810009A6108480021FFF7C3FB074B9A69064BD2
:10482000DB699A4203D302480021FBF75BFF80BD9E
:104830000004004000240140C808002080B483B078
:1048400000AF78607B689B899BB218460C37BD46E9
:104850005DF8047B704700BF80B485B000AF78601E
:104860000B467B800023FB737B681B899AB27B8895
:1048700013409BB2002B02D00123FB7301E0002305
:10488000FB73FB7B18461437BD465DF8047B70470D
:1048900080B485B000AF78600B46FB700023FB73DB
:1048A0000023BB8100237B8100233B81FB7803F045
:1048B0000F03012202FA03F3BB81FB781B09DBB271
:1048C0007B817B89012202FA03F37B817B689B88D1
:1048D0009AB27B8913403B817B681B899AB2BB8962
:1048E00013409BB2002B05D03B89002B02D0012343
:1048F000FB7301E00023FB73FB7B18461437BD46B6
:104900005DF8047B704700BF80B485B000AF78606D
:104910000B46FB700023FB81FB7803F00F030122A1
:1049200002FA03F3FB81FB89DB439AB27B681A81AD
:104930001437BD465DF8047B704700BF80B582B078
:1049400000AF78607A680D4B9A420AD14FF400109C
:104950000121FFF759FA4FF400100021FFF754FA34
:1049600009E04FF480000121FFF74EFA4FF4800078
:104970000021FFF749FA0837BD4680BD00540040CA
:1049800080B58AB000AF786039600023FB840023D3
:104990007B840423BB84574BFB617B689B88FB842F
:1049A000FB8C23F03F03FB8407F108031846FFF755
:1049B0001FF93B69FB61FA694F4BA3FB02139B0C88
:1049C0007B84FA8C7B8C1343FB847B68FA8C9A8003
:1049D0007B681B889BB223F001039AB27B681A8024
:1049E0000023FB843B681A68444B9A4215D83B6805
:1049F0001B685B00FA69B2FBF3F3BB84BB8C032B2F
:104A000001D80423BB84FA8CBB8C1343FB847B8CBE
:104A100001339AB27B681A8440E03B68DA884BF62F
:104A2000FF739A4209D13B681A6813465B0013442E
:104A3000FA69B2FBF3F3BB840EE03B681A681346D5
:104A40009B0013449A001344FA69B2FBF3F3BB844E
:104A5000BB8C43F48043BB84BB8CC3F30B03002BA0
:104A600003D1BB8C43F00103BB84BA8CFB8C134392
:104A70009BB26FEA43436FEA5343FB847B8C4FF452
:104A8000967202FB03F31E4A82FB03129211DB179C
:104A9000D31A9BB201339AB27B681A847B68FA8C72
:104AA0009A837B681B889BB243F001039AB27B68B0
:104AB0001A807B681B88FB84FB8C23F4816323F0C2
:104AC0000203FB843B689A883B685B8913439AB274
:104AD000FB8C1343FB847B68FA8C1A803B689A89B1
:104AE0003B681B8913439AB27B681A812837BD46FD
:104AF00080BD00BF00127A0083DE1B43A086010048
:104B0000D34D621080B483B000AF78600B46FB7069
:104B1000FB78002B08D07B681B889BB243F0010315
:104B20009AB27B681A8007E07B681B889BB223F0EF
:104B300001039AB27B681A800C37BD465DF8047B8E
:104B4000704700BF80B483B000AF78600B46FB7045
:104B5000FB78002B08D07B681B889BB243F48073E2
:104B60009AB27B681A8007E07B681B889BB223F4AB
:104B700080739AB27B681A800C37BD465DF8047B5F
:104B8000704700BF80B483B000AF78600B46FB7005
:104B9000FB78002B08D07B681B889BB243F4007322
:104BA0009AB27B681A8007E07B681B889BB223F46B
:104BB00000739AB27B681A800C37BD465DF8047B9F
:104BC000704700BF80B483B000AF78600B46FB70C5
:104BD000FB78002B08D07B681B889BB243F4806372
:104BE0009AB27B681A8007E07B681B889BB223F42B
:104BF00080639AB27B681A800C37BD465DF8047BEF
:104C0000704700BF80B483B000AF78600B46FB7084
:104C1000FB789AB27B681A820C37BD465DF8047B3C
:104C2000704700BF80B483B000AF78607B681B8A98
:104C30009BB2DBB218460C37BD465DF8047B70476B
:104C400080B483B000AF78600B467B807B88B3F57F
:104C5000006F08D17B681B889BB243F400639AB253
:104C60007B681A8007E07B681B889BB223F4006393
:104C70009AB27B681A800C37BD465DF8047B70479A
:104C800080B487B000AF7860396000233B610023B7
:104C9000FB600023BB600023FB757B689B8A9BB293
:104CA000FB607B681B8B9BB2BB60BB681B04BB605B
:104CB000FA68BB68134323F07F433B613A693B6862
:104CC0001A403B689A4202D10123FB7501E00023A0
:104CD000FB75FB7D18461C37BD465DF8047B7047AD
:104CE00080B487B000AF786039600023FB75002383
:104CF0003B610023FB607B68FB603B681B0F3B61F3
:104D00003B6823F07F433B603B69002B03D0FB688B
:104D10001433FB6005E03B681B0C3B60FB681833F9
:104D2000FB60FB681A683B681340002B02D001232C
:104D3000FB7501E00023FB75FB7D18461C37BD4663
:104D40005DF8047B704700BF80B588B000AF786025
:104D500044F204000121FEF7FDFF4FF40073BB8312
:104D60001823FB770323BB7707F11C03144819466C
:104D7000FDF7F4FD4FF48063BB830423FB7707F159
:104D80001C030F481946FDF7E9FD4FF4E133FB60C2
:104D900000233B8200237B820023BB8200233B83D2
:104DA0000C23FB8207F10C0306481946FFF73CF978
:104DB00004480121FFF7F2F92037BD4680BD00BF4E
:104DC000000801400038014080B483B000AF786033
:104DD00002E07B68013B7B607B68002BF9D10C37DC
:104DE000BD465DF8047B704780B483B000AF786047
:104DF0007B6842F6E06202FB03F37B607B68184647
:104E00000138FDD80C37BD465DF8047B704700BF04
:104E10002DE9F04FB64B21F000469E4283B0044688
:104E20000D4689460FDDB3498E4200F3B38000F092
:104E3000AE80B9F1000F40F3EF8091A1D1E90001FC
:104E400003B0BDE8F08FAC4B9E4200F3BD80A3F1F0
:104E5000DE739E4240F3A7804FF0FF3C22462B4674
:104E600020462946CDF804C000F076FC02460B46E9
:104E700082468B4600F070FC83A3D3E900230646EC
:104E80000F4600F069FC82A3D3E9002300F0B2FAD8
:104E900032463B4600F060FC7FA3D3E9002300F0DC
:104EA000A9FA32463B4600F057FC7DA3D3E9002324
:104EB00000F0A0FA32463B4600F04EFC7AA3D3E95C
:104EC000002300F097FA32463B4600F045FC78A3F9
:104ED000D3E9002300F08EFA52465B4600F03CFC1A
:104EE00075A3D3E9002382468B463046394600F04D
:104EF00033FC73A3D3E9002300F07AFA32463B4631
:104F000000F02AFC70A3D3E9002300F071FA3246C6
:104F10003B4600F021FC6EA3D3E9002300F068FAC1
:104F200032463B4600F018FC6BA3D3E9002300F0A7
:104F30005FFA32463B4600F00FFCDDF804C0024643
:104F4000BCF1FF3F0B466BD0504659464FEACC06AA
:104F500000F050FA22462B4600F0FEFB674F684BEC
:104F600037441E44D6E9002300F042FA22462B467D
:104F700000F03EFA02460B46D7E9000100F038FA8D
:104F8000B9F1000F0CDA01F10045294608E00028CC
:104F90003FF44FAF2046294622462B4600F02AFA1E
:104FA00003B0BDE8F08F4EA3D3E9002300F022FA4E
:104FB0000022544B00F060FE00283FF44DAF204625
:104FC000294603B0BDE8F08F00F0CAF84E4B044606
:104FD0009E420D4633DCA3F550239E4200F3A5808C
:104FE00002460B4600F006FA0022464B00F000FA9B
:104FF000002206460F46204629464FF0804300F027
:10500000F9F902460B463046394600F0CFFC4FF026
:10501000000C04460D4621E733A1D1E90001BFE7AA
:105020005046594600F0E6F922462B4600F094FB24
:1050300002460B462046294600F0DAF9B0E7334B2A
:105040009E4267DC0022324B00F0D2F90022064675
:105050000F46204629462E4B00F07EFB0022294BAE
:1050600000F0C8F902460B463046394600F09EFC77
:105070004FF0020C04460D46F0E600BFAFF300808F
:10508000182D4454FB21F93F11DA22E33AAD903F49
:10509000EB0D76244B7BA93F513DD0A0660DB13F6F
:1050A0006E204CC5CD45B73FFF8300922449C23FD7
:1050B0000D5555555555D53F2F6C6A2C44B4A2BF9C
:1050C0009AFDDE522DDEAD3F6D9A74AFF2B0B33F64
:1050D000711623FEC671BC3FC4EB98999999C93FDC
:1050E0009C7500883CE4377E182D4454FB21F9BFA1
:1050F000FFFF0F440000F07FFFFFDB3F507300080D
:10510000307300080000F03FFFFFF23FFF7F0340D5
:105110000000F83F02460B4600200F4900F046FC15
:105120004FF0030C04460D4698E600220B4B00F0AE
:105130005FF9002206460F4620462946074B00F03D
:1051400059F902460B463046394600F02FFC4FF025
:10515000010C04460D4681E60000F0BF0000F03F60
:1051600021F00041704700BF2DE9F0478AB00446A6
:105170000D4600F04FF8DFF898A006469AF9003087
:105180000F4601330FD02046294600F003F950B1F5
:105190004FF000084FF0000942464B462046294692
:1051A00000F04CFD20B9304639460AB0BDE8F08722
:1051B00016499AF8006001220023CDE90445CDE9A3
:1051C000024501910092089366B9CDE906896846C7
:1051D00000F008F980B1089B9BB9DDE906010AB02F
:1051E000BDE8F0874046494642464B4600F0DEFBAC
:1051F000022ECDE90601EAD101F050F82123036027
:10520000E9E701F04BF8089B0360E6E770730008DC
:105210001C01002021F0004C2DE9F8434FEA1C5CF2
:10522000DFF86C814FEA0C5CC44506460F460B461E
:10523000024600F08F8000296FDD0F1578D0A7F2AD
:10524000FF37C3F31303F90743F4801360D4D10F7E
:105250004FF0000C01EB43037F105200654616200F
:105260004FF400116C189C424FEAD2764FEA42028A
:1052700002DC1B1B65188C44013806EB43034FEA24
:105280005101EFD1804620264FF0004109E023D0A4
:10529000D40F013E4FEA510104EB43034FEA4202AF
:1052A0001ED0AB4201EB0804F1DD04F00049B9F176
:1052B000004F04EB010809D0A9465B1B944288BF4C
:1052C00003F1FF33121B08444D46E1E7B8F1000F2C
:1052D000F2DB05F10109F0E79442E6D91D46D7E774
:1052E0001A4304D0431C41D000F00103184446087F
:1052F0004FEA6C031CF0010F03F17F5303F5001319
:1053000018BF46F0004603EB07513046BDE8F8836E
:10531000D10F01EB4303520099E721F0004303430F
:1053200022D051BB0F46D30A153F5205002BFAD0AD
:1053300013F480111DD15B00D80201F10101FAD5EF
:10534000C1F10100C1F1200422FA04F407448A40AB
:10535000234374E702460B4600F0FEF932463B4613
:1053600000F048F8BDE8F883BDE8F8830CF1010CC3
:10537000BEE7202401200021E6E702460B4600F0AC
:1053800037F802460B4600F011FBBDE8F88300BF7A
:105390000000F07F31F0004310B408D00F4AA3F5AD
:1053A000801494420AD804205DF8044B704700280A
:1053B0000CBF022003205DF8044B7047B3F5801F3B
:1053C00001D20320F7E7064A934201D00020F2E71A
:1053D000D0F1010038BF0020EDE700BFFFFFDF7F05
:1053E0000000F07F0020704781F0004102E000BF24
:1053F00083F0004330B54FEA41044FEA430594EA95
:10540000050F08BF90EA020F1FBF54EA000C55EACF
:10541000020C7FEA645C7FEA655C00F0E2804FEAA0
:105420005454D4EB5555B8BF6D420CDD2C4480EA82
:10543000020281EA030382EA000083EA010180EAB2
:10544000020281EA0303362D88BF30BD11F0004F00
:105450004FEA01314FF4801C4CEA113102D0404236
:1054600061EB410113F0004F4FEA03334CEA133371
:1054700002D0524263EB430394EA050F00F0A78089
:10548000A4F10104D5F1200E0DDB02FA0EFC22FA84
:1054900005F2801841F1000103FA0EF2801843FA78
:1054A00005F359410EE0A5F120050EF1200E012A69
:1054B00003FA0EFC28BF4CF0020C43FA05F3C018A7
:1054C00051EBE37101F0004507D54FF0000EDCF120
:1054D000000C7EEB00006EEB0101B1F5801F1BD3C9
:1054E000B1F5001F0CD349085FEA30004FEA3C0CCD
:1054F00004F101044FEA445212F5800F80F09A80C3
:10550000BCF1004F08BF5FEA500C50F1000041EBC6
:10551000045141EA050130BD5FEA4C0C404141EBCA
:10552000010111F4801FA4F10104E9D191F0000FF1
:1055300004BF01460020B1FA81F308BF2033A3F174
:105540000B03B3F120020CDA0C3208DD02F1140C6B
:10555000C2F10C0201FA0CF021FA02F10CE002F1A6
:105560001402D8BFC2F1200C01FA02F120FA0CFC9F
:10557000DCBF41EA0C019040E41AA2BF01EB0451E8
:10558000294330BD6FEA04041F3C1CDA0C340EDCE6
:1055900004F11404C4F1200220FA04F001FA02F329
:1055A00040EA030021FA04F345EA030130BDC4F1E7
:1055B0000C04C4F1200220FA02F001FA04F340EADC
:1055C0000300294630BD21FA04F0294630BD94F08D
:1055D000000F83F4801306BF81F480110134013D74
:1055E0004EE77FEA645C18BF7FEA655C29D094EAE5
:1055F000050F08BF90EA020F05D054EA000C04BF63
:105600001946104630BD91EA030F1EBF002100204D
:1056100030BD5FEA545C05D14000494128BF41F0EC
:10562000004130BD14F580043CBF01F5801130BD50
:1056300001F0004545F0FE4141F470014FF00000DB
:1056400030BD7FEA645C1ABF194610467FEA655C8C
:105650001CBF0B46024650EA013406BF52EA03352E
:1056600091EA030F41F4002130BD00BF90F0000F1C
:1056700004BF0021704730B54FF4806404F1320458
:105680004FF000054FF0000150E700BF90F0000F11
:1056900004BF0021704730B54FF4806404F1320438
:1056A00010F0004548BF40424FF000013EE700BF08
:1056B00042004FEAE2014FEA31014FEA02701FBF98
:1056C00012F07F4393F07F4F81F06051704792F06A
:1056D000000F14BF93F07F4F704730B54FF46074E4
:1056E00001F0004521F0004120E700BF50EA01022F
:1056F00008BF704730B54FF000050AE050EA0102DC
:1057000008BF704730B511F0004502D5404261EB4B
:1057100041014FF4806404F132045FEA915C3FF48C
:10572000DCAE4FF003025FEADC0C18BF03325FEA25
:10573000DC0C18BF033202EBDC02C2F1200300FADA
:1057400003FC20FA02F001FA03FE40EA0E0021FAFF
:1057500002F11444C1E600BF70B54FF0FF0C4CF4E9
:10576000E06C1CEA11541DBF1CEA135594EA0C0F9F
:1057700095EA0C0F00F0DEF82C4481EA030621EADA
:105780004C5123EA4C5350EA013518BF52EA033515
:1057900041F4801143F4801338D0A0FB02CE4FF0C7
:1057A0000005E1FB02E506F00042E0FB03E54FF0F7
:1057B0000006E1FB03569CF0000F18BF4EF0010EEF
:1057C000A4F1FF04B6F5007F64F5407404D25FEAEB
:1057D0004E0E6D4146EB060642EAC62141EA55519E
:1057E0004FEAC52040EA5E504FEACE2EB4F1FD0CE0
:1057F00088BFBCF5E06F1ED8BEF1004F08BF5FEA5E
:10580000500E50F1000041EB045170BD06F000460F
:1058100046EA010140EA020081EA0301B4EB5C04BC
:10582000C2BFD4EB0C0541EA045170BD41F48011B4
:105830004FF0000E013C00F3AB8014F1360FDEBFD9
:10584000002001F0004170BDC4F10004203C35DAB5
:105850000C341BDC04F11404C4F1200500FA05F338
:1058600020FA04F001FA05F240EA020001F00042D9
:1058700021F0004110EBD37021FA04F642EB06014F
:105880005EEA430E08BF20EAD37070BDC4F10C0479
:10589000C4F1200500FA04F320FA05F001FA04F23D
:1058A00040EA020001F0004110EBD37041F1000129
:1058B0005EEA430E08BF20EAD37070BDC4F1200534
:1058C00000FA05F24EEA020E20FA04F301FA05F29C
:1058D00043EA020321FA04F001F0004121FA04F244
:1058E00020EA020000EBD3705EEA430E08BF20EA14
:1058F000D37070BD94F0000F0FD101F0004640004E
:1059000041EB010111F4801F08BF013CF7D041EACF
:10591000060195F0000F18BF704703F000465200D3
:1059200043EB030313F4801F08BF013DF7D043EAA4
:105930000603704794EA0C0F0CEA135518BF95EA5A
:105940000C0F0CD050EA410618BF52EA4306D1D1E1
:1059500081EA030101F000414FF0000070BD50EA00
:10596000410606BF1046194652EA430619D094EA8A
:105970000C0F02D150EA013613D195EA0C0F05D174
:1059800052EA03361CBF104619460AD181EA0301C8
:1059900001F0004141F0FE4141F470014FF0000080
:1059A00070BD41F0FE4141F4780170BD70B54FF01B
:1059B000FF0C4CF4E06C1CEA11541DBF1CEA13559B
:1059C00094EA0C0F95EA0C0F00F0A7F8A4EB05047D
:1059D00081EA030E52EA03354FEA013100F0888074
:1059E0004FEA03334FF0805545EA131343EA12633D
:1059F0004FEA022245EA111545EA10654FEA0026F2
:105A00000EF000419D4208BF964244F1FD0404F5AA
:105A1000407402D25B084FEA3202B61A65EB030506
:105A20005B084FEA32024FF480104FF4002CB6EBC3
:105A3000020E75EB030E22BFB61A754640EA0C0043
:105A40005B084FEA3202B6EB020E75EB030E22BF83
:105A5000B61A754640EA5C005B084FEA3202B6EBC4
:105A6000020E75EB030E22BFB61A754640EA9C0083
:105A70005B084FEA3202B6EB020E75EB030E22BF53
:105A8000B61A754640EADC0055EA060E18D04FEA11
:105A9000051545EA16754FEA06164FEAC30343EAB1
:105AA00052734FEAC2025FEA1C1CC0D111F4801F7E
:105AB0000BD141EA00014FF000004FF0004CB6E777
:105AC00011F4801F04BF01430020B4F1FD0C88BF16
:105AD000BCF5E06F3FF6AFAEB5EB030C04BFB6EB21
