:020000040800F2
:1000000058340020151C0008751C0008751C0008D9
:10001000751C0008751C0008751C00080000000015
:10002000000000000000000000000000751C000837
:10003000751C000800000000751C0008452E000813
:10004000751C0008751C0008751C0008751C00084C
:10005000751C0008751C0008751C0008751C00083C
:10006000751C0008751C0008751C0008751C00082C
:10007000751C0008751C0008751C0008751C00081C
:10008000751C0008751C0008751C0008751C00080C
:10009000ED310008751C0008751C0008353C00088F
:1000A000751C0008751C0008751C0008751C0008EC
:1000B000751C0008853D0008751C0008751C0008AB
:1000C000751C0008751C0008751C0008751C0008CC
:1000D0006D3B0008850F0008E10900081D080008B5
:1000E000593C0008751C0008750F0008000000004E
:1000F0000000000000000000000000000000000000
:1001000000000000000000005FF808F110B5054C89
:10011000237833B9044B13B10448AFF300800123B3
:10012000237010BD1405002000000000F8520008E4
:1001300008B5064B1BB106480649AFF300800648D8
:10014000036813B1054B03B1984708BD00000000D8
:10015000F8520008180500201005002000000000DB
:1001600080B582B000AF1020012103F02FFA4FF4C8
:100170000053BB801023FB710323BB713B1D0E4852
:10018000194602F01FFA0C484FF4005102F0EAFA47
:10019000642004F001F808484FF4005102F0F0FA2E
:1001A000642003F0F9FF04484FF4005102F0DAFA3A
:1001B0000837BD4680BD00BF0010014080B485B047
:1001C00000AF03463960FB800D4B1B685B8AFB6008
:1001D000FB88002B0AD10A4B1B683A689188FA68A1
:1001E00092B28A1A92B21A82002303E03B681A681C
:1001F000FB68134418461437BD465DF8047B70470E
:10020000342F002080B485B000AF0346FB711A4B39
:100210001B78BB600023FB601EE0FB68DBB29B0029
:1002200003F1804303F5B843FA68D2B2920002F1B9
:10023000804202F5B842126892B2114640F60F723F
:100240000A4042F4004242F08002F968C9B20A430F
:100250001A60FB680133FB60FA68BB689A42DCD322
:10026000064BFA7962F07F02D2B21A601437BD46AB
:100270005DF8047B704700BF3C0000204C5C0040F0
:1002800080B400AFBD465DF8047B704780B582B096
:1002900000AF78607A68784B9A420AD14FF40060D8
:1002A000012103F0CFF94FF40060002103F0CAF9F7
:1002B000DEE07B68B3F1804F08D10120012103F01B
:1002C000DFF90120002103F0DBF9D1E07A686B4B04
:1002D0009A4208D10220012103F0D2F90220002124
:1002E00003F0CEF9C4E07A68654B9A4208D1042045
:1002F000012103F0C5F90420002103F0C1F9B7E0A2
:100300007A68604B9A4208D10820012103F0B8F9BD
:100310000820002103F0B4F9AAE07A685A4B9A4207
:1003200008D11020012103F0ABF91020002103F0C7
:10033000A7F99DE07A68554B9A4208D12020012107
:1003400003F09EF92020002103F09AF990E07A68EA
:100350004F4B9A420AD14FF40050012103F072F939
:100360004FF40050002103F06DF981E07A68494BA9
:100370009A420AD14FF40020012103F063F94FF4AF
:100380000020002103F05EF972E07A68424B9A4245
:100390000AD14FF48010012103F054F94FF480107A
:1003A000002103F04FF963E07A683C4B9A420AD18E
:1003B0004FF40010012103F045F94FF40010002123
:1003C00003F040F954E07A68354B9A4208D1402056
:1003D000012103F055F94020002103F051F947E0D5
:1003E0007A68304B9A4208D18020012103F048F905
:1003F0008020002103F044F93AE07A682A4B9A42BF
:100400000AD14FF48070012103F03AF94FF4807063
:10041000002103F035F92BE07A68244B9A420AD187
:100420004FF48030012103F00DF94FF480300021AA
:1004300003F008F91CE07A681D4B9A420AD14FF488
:100440000030012103F0FEF84FF40030002103F0EA
:10045000F9F80DE07A68174B9A4209D14FF48020E1
:10046000012103F0EFF84FF48020002103F0EAF8B7
:100470000837BD4680BD00BF002C0140000400408D
:1004800000080040000C0040001000400014004034
:1004900000340140004C0140005001400054014034
:1004A00000180040001C00400020004000400140B7
:1004B000004401400048014080B485B000AF78603E
:1004C00039600023FB817B681B88FB817A682E4B97
:1004D0009A4213D07A682D4B9A420FD07B68B3F1C1
:1004E000804F0BD07A682A4B9A4207D07A68294B02
:1004F0009A4203D07A68284B9A4208D1FB8923F0AC
:100500007003FB813B685A88FB891343FB817A683F
:10051000224B9A420CD07A68214B9A4208D0FB8930
:1005200023F44073FB813B68DA88FB891343FB812A
:100530007B68FA891A803B689A887B689A853B6851
:100540001A887B681A857A680F4B9A420FD07A68AE
:100550000E4B9A420BD07A68124B9A4207D07A68B7
:10056000114B9A4203D07A68104B9A4204D13B68EF
:100570001B7A1A467B681A867B6801229A82143796
:10058000BD465DF8047B7047002C014000340140FB
:100590000004004000080040000C00400010004033
:1005A0000014004000400140004401400048014068
:1005B00080B485B000AF7860396000237B81002370
:1005C000FB810023BB817B681B8C9BB223F0010362
:1005D0009AB27B681A847B681B8CFB817B689B8842
:1005E000BB817B681B8B7B817B8923F070037B81C4
:1005F0007B8923F003037B813B681A887B89134343
:100600007B81FB8923F00203FB813B681A89FB890C
:100610001343FB813B685A88FB891343FB817A684B
:10062000244B9A420FD07A68234B9A420BD07A68B7
:10063000224B9A4207D07A68214B9A4203D07A68BB
:10064000204B9A4223D1FB8923F00803FB813B68AE
:100650005A89FB891343FB81FB8923F00403FB8147
:100660003B689A88FB891343FB81BB8923F4807321
:10067000BB81BB8923F40073BB813B689A89BB892A
:100680001343BB813B68DA89BB891343BB817B6819
:10069000BA899A807B687A891A833B68DA887B6892
:1006A0009A867B68FA891A841437BD465DF8047B04
:1006B000704700BF002C0140003401400040014061
:1006C000004401400048014080B483B000AF78602E
:1006D0007B684FF6FF729A807B6800221A807B68E5
:1006E0000022DA807B6800225A807B6800221A721E
:1006F0000C37BD465DF8047B704700BF80B483B003
:1007000000AF78607B6800221A807B6800225A80E4
:100710007B6800229A807B680022DA807B68002256
:100720001A817B6800225A817B6800229A817B684B
:100730000022DA810C37BD465DF8047B704700BFAC
:1007400080B483B000AF78600B46FB70FB78002B61
:1007500008D07B681B889BB243F001039AB27B6888
:100760001A8007E07B681B889BB223F001039AB2D2
:100770007B681A800C37BD465DF8047B704700BF6C
:1007800080B485B000AF78600B467B800023FB739C
:100790000023BB8100237B817B681B8A9AB27B8804
:1007A0001340BB817B689B899AB27B8813407B8115
:1007B000BB89002B05D07B89002B02D00123FB7362
:1007C00001E00023FB73FB7B18461437BD465DF840
:1007D000047B704780B483B000AF78600B467B80A9
:1007E0007B88DB439AB27B681A820C37BD465DF882
:1007F000047B704780B400AF074B00221A60064BA1
:1008000000225A60044B00221A72034B00225A72D3
:10081000BD465DF8047B70474807002080B582B074
:1008200000AF214840F2255103F02CF90346002B7C
:1008300037D01D4840F2255103F07CF91B4B7B60FB
:100840007B685B7A002B2AD1184B1B68FF2B26D8BC
:10085000154B9B889BB2FB707B681B68DBB27A6888
:100860001344FA789A72114B1B7A0D2B06D1FB7840
:100870000A2B03D10D4B01225A720AE00B4B1B7A53
:100880000D2B03D1094B01225A7202E0074BFA7873
:100890001A72064B1B685A1C044B1A6001E0FFF7E2
:1008A000A9FF0837BD4680BD00480040480700202A
:1008B00080B485B000AF03463960FB713B68BB6014
:1008C0000023FB730CE0BB685B78FA799A4201D194
:1008D000FB7B09E0BB680433BB60FB7B0133FB732C
:1008E000FB7B042BEFD9FF2318461437BD465DF878
:1008F000047B704780B584B000AF786039607B6856
:100900001B78012B2ED13B689B78002B26D02F48DB
:1009100001F016F93B68DA787B681B7C9A4203D0B9
:100920007B6800225A774EE00023FB730AE0FB7BD2
:100930007A6813445B7C2648194601F001F9FB7B79
:100940000133FB733B68DB78FA7B9A42EFD3214893
:1009500001F00AF97B6801225A7734E07B680022B3
:100960005A7730E03B689B78002B03D07B680022ED
:100970005A7728E03B68DA787B681B7C9A4206D07D
:100980007B6800225A77144801F0EEF81BE07B6880
:1009900001225A77114801F0D3F80023FB730AE0D3
:1009A000FB7B7A6813445B7C0948194601F0C8F860
:1009B000FB7B0133FB733B68DB78FA7B9A42EFD316
:1009C000044801F0D1F81037BD4680BD7C4A0008CC
:1009D000A04A0008244A0008A84A0008C04A0008A3
:1009E00080B582B000AF644840F6460103F04AF893
:1009F0000346002B0DD0604840F6460103F09AF8FC
:100A00005E4B0122DA765D4B00225A765B4B002268
:100A10001A74594840F2255103F034F80346002B6C
:100A200000F0A680544840F2255103F083F8524B61
:100A30009B889BB2FB71514BDB7E002B13D04F4B3D
:100A40000022DA76FB79552B06D14C4B01225A76DF
:100A50004B4801F075F88BE04A4801F085F8474BA8
:100A600000225A7684E0454B5B7E002B2ED0434B10
:100A700000225A76414B01229A76FB791846424968
:100A8000FFF716FF03461A463C4B5A733B4B0022B6
:100A90001A743A4BFA799A73FB793C48194601F07B
:100AA0004FF8364B1B78012B62D0344B5B7B334ABB
:100AB00006339B0013445B7A002B03D02F4B01229B
:100AC0009A7755E02D4B00229A7751E02B4B9B7E75
:100AD000002B4DD0FB792E48194601F031F8274BF9
:100AE0001A7C264B5B7B254906339B000B449B7A83
:100AF0009A422ED2214B1B7C204A1344FA795A7415
:100B00001E4B1B7C0133DAB21C4B1A741B4B1A7C34
:100B10001A4B5B7B194906339B000B449B7A9A4224
:100B200026D11C4801F020F8144B5B7B06339A0059
:100B3000124B1344073311481946FFF7DBFE0F4BE6
:100B400000225A760D4B00229A760C4B0022DA7660
:100B50000EE0114801F008F8084B00221A74074B08
:100B600000225A76054B00229A76044B0022DA7650
:100B70000837BD4680BD00BF00440040B0260020BD
:100B80002C4B0008344B0008CF260020504B0008A7
:100B9000584B0008604B0008644B000880B500AF5C
:100BA000154B154A126842F001021A60124A124BA4
:100BB0005968124B0B4053600F4A0F4B1B6823F0D0
:100BC000847323F4803313600B4B0B4A126822F4B6
:100BD00080221A60084B084A526822F4FE025A60CA
:100BE000054B4FF41F029A6000F00CF8044B4FF0D5
:100BF00000629A6080BD00BF001002400000FFF854
:100C000000ED00E080B500AF00F002F880BD00BF4D
:100C100080B483B000AF00237B6000233B603A4B7D
:100C2000394A126842F480321A60374B1B6803F469
:100C300000333B607B6801337B603B68002B03D152
:100C40007B68B3F5A06FF0D12F4B1B6803F4003322
:100C5000002B02D001233B6001E000233B603B6896
:100C6000012B4BD1294B294A126842F010021A601D
:100C7000264B264A126822F003021A60234B234AAD
:100C8000126842F002021A601F4B1F4A52685A60F3
:100C90001D4B1D4A52685A601B4B1B4A526842F456
:100CA00080625A60184B184A526822F47C125A60CB
:100CB000154B154A526842F4E8125A60124B124A18
:100CC000126842F080721A6000BF0F4B1B6803F07D
:100CD0000073002BF9D00C4B0B4A526822F0030230
:100CE0005A60094B084A526842F002025A6000BF3B
:100CF000054B5B6803F00C03082BF9D10C37BD469C
:100D00005DF8047B704700BF0010024000200240E5
:100D100080B483B000AF0346FB710C37BD465DF86D
:100D2000047B704780B500AF0E4B4FF4E1321A6080
:100D30000C4B00229A800B4B0022DA80094B0022D8
:100D40001A81084B00229A81064B0C225A810020FE
:100D5000044900F031F9044840F22551012202F023
:100D60000BFE80BDE82600200038014080B500AFB2
:100D7000304B1B79012B07D0022B0AD0002B0DD151
:100D80002D4B0022DA800DE02B4B4FF44052DA80DD
:100D900008E0294B4FF40052DA8003E0FFF7C2FF6E
:100DA000002344E0234B5B79012B07D0022B0AD0B0
:100DB000002B0DD1204B00221A810DE01E4B4FF469
:100DC00080621A8108E01C4B4FF4C0621A8103E074
:100DD000FFF7A8FF00232AE0164B9B79072B02D0D0
:100DE000082B04D010E0144B00229A8010E0124B24
:100DF0001B89002B03D1104B00229A8008E00E4B78
:100E00004FF480529A8003E0FFF78CFF00230EE03E
:100E1000084B1A68084B1A60074B00229A81064B50
:100E20000C225A810020044900F0C6F8012318461C
:100E300080BD00BF34000020E826002098B500AF38
:100E4000154B9B79072B0CD1144B1C68144802F0EE
:100E5000EDFD0346DBB203F07F03DAB2114B1A5506
:100E60000CE00D4B9B79082B08D10C4B1C680C48EF
:100E700002F0DCFD0346DAB20A4B1A55074B1B6839
:100E80005A1C064B1A60054B1B68B3F5006F02D164
:100E9000024B00221A6098BD340000205408002044
:100EA00000380140F826002080B584B000AF0E4B1A
:100EB0001B68FB600D4B1B68BB600D4B1B687B60A8
:100EC000FA687B681344FB60FB68002B09D0F86864
:100ED0000849082200F012F8B8680749042200F017
:100EE0000DF81037BD4680BDE8F7FF1FECF7FF1F78
:100EF000F0F7FF1F1A0000202A00002080B487B0FE
:100F000000AFF860B9601346FB710023FB75002346
:100F1000FB7525E0FB681B0F092B0AD8FB7D5B00E6
:100F2000BA681344FA68120FD2B23032D2B21A70D1
:100F300009E0FB7D5B00BA681344FA68120FD2B275
:100F40003732D2B21A70FB681B01FB60FB7D5B007D
:100F50000133BA68134400221A70FB7D0133FB751C
:100F6000FA7DFB799A42D5D31C37BD465DF8047BE8
:100F7000704700BF80B500AF4FF4802002F09EFBA9
:100F800080BD00BF80B500AF0A4840F2255102F095
:100F900079FD0346002B01D0FFF750FF05480821DB
:100FA00002F054FD0346002B02D0024802F03EFD41
:100FB00080BD00BF0038014080B584B000AF03465B
:100FC0003960FB71FA792E4B53F82220F9792D4BB9
:100FD00053F82130134343F001031846012102F076
:100FE000F5FAFB79002B08D1FA79274B53F8223018
:100FF0001846012102F0EAFA0BE00820012101F075
:10100000DFFBFA79204B53F822301846012102F019
:10101000FBFA1823FB73FA791C4B33F81230BB81AF
:101020000323BB73FA791A4B53F8222007F10C0300
:101030001046194601F0C6FA0423FB73FA79154BE2
:1010400033F81230BB81FA79134B53F8222007F1A1
:101050000C031046194601F0B5FAFA790F4B53F814
:1010600022301846396802F0ADFBFA790B4B53F881
:1010700022301846012102F05FFC1037BD4680BDCA
:10108000484C0008504C0008404C0008584C0008E0
:10109000080000205C4C0008100000200000002028
:1010A00080B483B000AF0346FB80054AF9884FF651
:1010B000F8730B4013600C37BD465DF8047B704736
:1010C000505C004080B483B000AF02460B46FA711A
:1010D000BB80FB799B0003F1804303F5B843FA79A9
:1010E000920002F1804202F5B842126892B222F4F4
:1010F000EC4222F0700291B2BA880A4392B292B2E4
:101100001A600C37BD465DF8047B704790B482B01E
:1011100000AF02460B46FA71BB80FB799B0003F1DE
:10112000804303F5B8431B689BB223F4E04323F0EC
:1011300040039CB2BB8803F010039BB2002B02D08B
:1011400084F010039CB2BB8803F020039BB2002BF9
:1011500002D084F020039CB2FB799B0003F1804312
:1011600003F5B843034A224392B21A600837BD46DA
:1011700090BC70478080FFFF90B482B000AF024601
:101180000B46FA71BB80FB799B0003F1804303F5AA
:10119000B8431B689BB223F4804323F070039CB2D6
:1011A000BB8803F480539BB2002B02D084F480539D
:1011B0009CB2BB8803F400539BB2002B02D084F492
:1011C00000539CB2FB799B0003F1804303F5B843C5
:1011D000034A224392B21A600837BD4690BC70475A
:1011E0008080FFFF90B482B000AF0346FB71FB79B3
:1011F0009B0003F1804303F5B8431B689BB223F4C3
:10120000804323F070039CB284F480539CB284F436
:1012100000539CB2FB799B0003F1804303F5B84374
:10122000034A224392B21A600837BD4690BC704709
:101230008080FFFF80B483B000AF0346FB71FB7971
:101240009B0003F1804202F5B842FB799B0003F159
:10125000804303F5B8431B689BB223F4F8731B0566
:101260001B0D9BB243F07F4343F47F0343F40043E1
:1012700043F080039BB29BB213600C37BD465DF810
:10128000047B704780B483B000AF02460B46FA710E
:10129000BB800B4B1B689BB21A46FB79DB001344E7
:1012A00003F1005303F540535B00BA88520892B231
:1012B00052001A600C37BD465DF8047B704700BFD2
:1012C000505C004080B483B000AF02460B46FA7118
:1012D000BB800A4B1B689BB21A46FB79DB001A44A1
:1012E000074B13445B00BA88520892B252001A604E
:1012F0000C37BD465DF8047B704700BF505C004072
:101300000430002080B485B000AF02460B46FA716D
:10131000BB801B4B1B689BB21A46FB79DB001A444F
:10132000184B13445B00BB60BB883E2B12D9BB88B3
:101330005B09FB81BB8803F01F03002B02D1FB89F3
:10134000013BFB81FB899B0243F400431A46BB68C7
:101350001A600FE0BB885B08FB81BB8803F00103C8
:10136000002B02D0FB890133FB81FB899B021A46CB
:10137000BB681A601437BD465DF8047B704700BF38
:10138000505C00400630002080B584B000AF0346BA
:10139000FB71FB79FB73FB7B9BB20748194602F09C
:1013A00033FB00BF0448402102F050FB0346002BF2
:1013B000F8D01037BD4680BD0038014080B588B0F8
:1013C00000AFF860C7E90023BB6AFB610023BB6183
:1013D000FB6A03F48073002B0ED0D7E90023002AA8
:1013E00073F1000108DA0123BB61D7E900235242FF
:1013F00063EB4303C7E90023FB69013BFB61FB6926
:10140000FA68134400221A7024E0D7E9002310463A
:1014100019464FF00A024FF0000302F0D1FE1346C6
:101420007B61D7E90023104619464FF00A024FF0BE
:10143000000302F0C5FE02460B46C7E90023FB6924
:10144000013BFB61FB69FA6813447A69D2B230321E
:10145000D2B21A70D7E90023002B08BF0A2AD4D2CF
:10146000FB69013BFB61FB69FA6813443A7830324F
:10147000D2B21A70BB69002B08D0FB69013BFB613B
:10148000FB69FA6813442D221A700CE0FB6A03F022
:101490008003002B07D0FB69013BFB61FB69FA6805
:1014A00013442B221A70FB69FA681344184620373C
:1014B000BD4680BD80B483B000AF78600B46FB7042
:1014C0007B68FA781A70012318460C37BD465DF820
:1014D000047B704780B485B000AF7860396000232A
:1014E000FB600AE07B685A1C7A603A68511C3960DC
:1014F00012781A70FB680133FB603B681B78002B85
:10150000F0D1FB6818461437BD465DF8047B704780
:1015100080B586B000AFF8607A603B600B46FB7226
:1015200000237B617B68013B7B603B68092B10D902
:101530003A681E4BA3FB0213DB08FA7AF8681146DF
:101540007A68FFF7E5FF78617B69FA681344FB600E
:1015500011E00DE0FB7AF8681946FFF7ABFFFB6876
:101560000133FB607B6901337B617B68013B7B60FE
:101570007B68002BEEDC39680C4BA3FB0123DA08F7
:1015800013469B0013445B00CA1AD3B23033DBB25C
:10159000F8681946FFF78EFF03467A6913447B61AA
:1015A0007B6918461837BD4680BD00BFCDCCCCCC7A
:1015B00080B586B000AFF8607A603B600B46FB7286
:1015C00000237B613B68002B03DA3B685B423B6195
:1015D00001E03B683B617B68013B7B603B69092B19
:1015E00021D93B68002B0DDA3A692F4BA3FB02137C
:1015F000DB085B42FA7AF86811467A68FFF7D8FF91
:1016000078610BE03A69284BA3FB0213DB08FA7AF6
:10161000F86811467A68FFF7CBFF78617B69FA6852
:101620001344FB6026E03B68002B03DA7B68013B38
:101630007B600EE00DE0FB7AF8681946FFF73AFF91
:10164000FB680133FB607B6901337B617B68013B95
:101650007B607B68002BEEDC3B68002B0ADAF868C5
:101660002D21FFF727FF03467A6913447B61FB684E
:101670000133FB6039690C4BA3FB0123DA081346E5
:101680009B0013445B00CA1AD3B23033DBB2F86854
:101690001946FFF70FFF03467A6913447B617B69A4
:1016A00018461837BD4680BDCDCCCCCC80B588B0AF
:1016B00002AFF8607A600A46FA72BB7200237B615F
:1016C0007B68013B7B603B6A1B09002B12D03B6AA5
:1016D0001909FA7ABB7A0091F86811467A68FFF71F
:1016E000E5FF03467A6913447B617B69FA6813441A
:1016F000FB6011E00DE0FB7AF8681946FFF7DAFEAF
:10170000FB680133FB607B6901337B617B68013BD4
:101710007B607B68002BEEDC3B6A03F00F03092B38
:101720000BD83B6ADBB203F00F03DBB23033DBB222
:10173000F8681946FFF7BEFE19E0BB7A002B0BD004
:101740003B6ADBB203F00F03DBB23733DBB2F8687E
:101750001946FFF7AFFE0AE03B6ADBB203F00F0366
:10176000DBB25733DBB2F8681946FFF7A3FE7B699B
:1017700001337B617B6918461837BD4680BD00BFC9
:1017800080B590B002AFF8600B467A60FB72002320
:101790007B6307F11003202200924FF480720192C4
:1017A0001846D7E91023FFF709FE3863F868396B4C
:1017B00002F0E6FF386B03F041F803467B637B6B76
:1017C00018463837BD4680BD90B58BB002AFF86083
:1017D000B9607A603B600023BB6100237B61FB68DA
:1017E000002B03D0FB6800221A7023E122E17B6802
:1017F0001B78252B0BD0FB685A1CFA607A68511CA9
:10180000796012781A707B6901337B6112E17B6821
:1018100001331B78252B0BD1FB685A1CFA6025225B
:101820001A707B6802337B607B6901337B6101E165
:101830002023FB770023BB777B6801337B607B68C9
:101840001B78302B05D13023FB777B6801337B601D
:101850000FE00EE0BB7F1A46920013445B00DAB241
:101860007B681B781344DBB2303BBB777B6801336A
:101870007B607B681B782F2B03D97B681B78392B07
:10188000E8D9BA7F7B6913441A46BB689A4205D9E6
:10189000BB68DAB27B69DBB2D31ABB777B681B7893
:1018A0004C3B2C2B00F2B88001A252F823F000BF71
:1018B000F3190008191A0008191A0008191A000863
:1018C000191A0008191A0008191A0008191A00082C
:1018D000191A0008191A0008191A0008191A00081C
:1018E000AD190008191A0008191A0008191A000879
:1018F000191A0008191A0008191A0008191A0008FC
:10190000191A0008191A0008191A0008DD19000828
:1019100065190008191A0008191A0008191A000890
:10192000191A000865190008191A0008191A000880
:10193000191A0008191A0008191A0008191A0008BB
:10194000191A0008191A0008191A0008C9190008FC
:10195000191A00087B190008191A0008191A00083A
:1019600091190008BA7F3B68191D39601B68F97F1F
:10197000F868FFF71DFEB86151E0BA7F3B68191D9A
:1019800039601B68F97FF868FFF7C2FDB86146E06F
:10199000BA7F3B68191D39601968FB7F0091F868B0
:1019A00019460023FFF782FEB86138E0BA7F3B6832
:1019B000191D39601968FB7F0091F86819460123E9
:1019C000FFF774FEB8612AE03B681A1D3A601B6895
:1019D000F8681946FFF77EFDB86120E03B681A1DE4
:1019E0003A601B68DBB2F8681946FFF763FDB8611F
:1019F00015E0BC7F3B68073323F0070303F10802BF
:101A00003A60D3E90023F97FCDE90023F868224644
:101A1000FFF7B6FEB86102E04FF0FF3325E07B68C8
:101A200001337B60BB69FA681344FB607A69BB6968
:101A300013447B617B681B78002B04D07A69BB68F8
:101A40009A42FFF4D4AE7A69BB689A4203D2FB682B
:101A500000221A7008E0FB68013BFB60FB68002273
:101A60001A707B69013B7B617B6918462437BD4650
:101A700090BD00BF80B584B000AFF860B9607A60F7
:101A8000F8684FF48071BA687B68FFF79DFE0346E3
:101A900018461037BD4680BDB0B5CEB000AF07F1D7
:101AA0000C03186007F1080319603B1D1A6007F169
:101AB0001402174B14461D460FCD0FC40FCD0FC493
:101AC0002B68236007F1380107F108023B1D084627
:101AD00011681A68FFF7CEFF0346FF2B09DD0D4B97
:101AE0001B68DB6807F114021046194600F06EF817
:101AF000FEE707F1380207F10C031046196800F001
:101B000065F80346184607F59C77BD46B0BD00BF93
:101B1000204D00080005002080B582B000AF78603D
:101B20003960064B1B689B68184679683A68FFF76E
:101B3000B3FF034618460837BD4680BD00050020A8
:101B40000FB480B582B000AF07F114033B60386971
:101B50003968FFF7E1FF78607B6818460837BD46B3
:101B6000BDE8804004B0704780B582B000AF7860B7
:101B7000054B1B689B687868194600F027F80346F8
:101B800018460837BD4680BD0005002080B582B0EC
:101B900000AF786039600C4B1B689A683B689A42CA
:101BA00005D0094B1B68DA683B689A4206D17B680E
:101BB000DBB21846FFF7E8FB7B6801E04FF0FF332C
:101BC00018460837BD4680BD0005002080B584B0AA
:101BD00000AF786039600023FB6012E07B681B78FF
:101BE00018463968FFF7D2FF0346B3F1FF3F02D131
:101BF0004FF0FF330AE0FB680133FB607B68013381
:101C00007B607B681B78002BE8D1FB681846103797
:101C1000BD4680BD80B582B000AF114B7B60114BDB
:101C20003B6007E03B681A1D3A607A68111D7960D5
:101C300012681A603A680C4B9A42F3D30B480C496D
:101C40004FF000028842B8BF40F8042BFFF6FAAF0D
:101C5000FEF7A4FF01F07CF90837BD4680BD00BF48
:101C60000053000800000020140500201405002087
:101C70005830002080B400AFFEE700BF80B582B0CE
:101C800000AF78607A680D4B9A420AD14FF000702D
:101C9000012101F0F5FC4FF00070002101F0F0FC93
:101CA00009E04FF08060012101F0EAFC4FF0806014
:101CB000002101F0E5FC0837BD4680BD006400400E
:101CC00080B485B000AF786039600023FB730023D7
:101CD000BB607B681B6823F002027B681A607B682C
:101CE0001B6843F001027B681A6002E0BB680133A5
:101CF000BB607B685B6803F00103002B04D1BA680A
:101D00004FF6FF739A42F1D17B685B6803F00103E1
:101D1000002B02D10023FB739CE03B689B79012BD5
:101D200006D17B681B6843F080027B681A6005E07F
:101D30007B681B6823F080027B681A603B68DB7954
:101D4000012B06D17B681B6843F040027B681A6058
:101D500005E07B681B6823F040027B681A603B68E3
:101D60001B7A012B06D17B681B6843F020027B683D
:101D70001A6005E07B681B6823F020027B681A600C
:101D80003B685B7A012B06D17B681B6843F010022D
:101D90007B681A6005E07B681B6823F010027B6893
:101DA0001A603B689B7A012B06D17B681B6843F065
:101DB00008027B681A6005E07B681B6823F0080254
:101DC0007B681A603B68DB7A012B06D17B681B6855
:101DD00043F004027B681A6005E07B681B6823F00F
:101DE00004027B681A603B689B789A073B68DB7843
:101DF0001B061A433B681B791B041A433B685B793B
:101E00001B051A433B681B88013B1A437B68DA6158
:101E10007B681B6823F001027B681A600023BB60AB
:101E200002E0BB680133BB607B685B6803F00103C1
:101E3000002B04D0BA684FF6FF739A42F1D17B6849
:101E40005B6803F00103002B02D00023FB7301E069
:101E50000123FB73FB7B18461437BD465DF8047BFA
:101E6000704700BF80B485B000AF78600023FB608E
:101E70007B689B7A012202FA03F3FB60514B514AC3
:101E8000D2F8002242F00102C3F800224D4B4D4A25
:101E9000D2F81C12FA68D2430A40C3F81C227B68AD
:101EA0001B7B002B21D1474B464AD2F80C12FA6813
:101EB000D2430A40C3F80C22424B7A68927A79687E
:101EC000C9880804796849880143483243F83210C8
:101ED0003C497B689B7A7A68928810047A681288F9
:101EE00002434833DB000B445A607B681B7B012BA9
:101EF00020D1344B334AD2F80C12FA680A43C3F8A3
:101F00000C22304B7A68927A7968098808047968DB
:101F100049880143483243F832102A497B689B7A4A
:101F20007A68928810047A68D28802434833DB00CA
:101F30000B445A607B68DB7A002B09D1214B214A84
:101F4000D2F80412FA68D2430A40C3F8042207E028
:101F50001C4B1C4AD2F80412FA680A43C3F8042244
:101F60007B681B89002B08D1164B164AD2F8141235
:101F7000FA68D2430A40C3F814227B681B89012BFC
:101F800007D1104B0F4AD2F81412FA680A43C3F86B
:101F900014227B685B7B012B07D10A4B094AD2F8DC
:101FA0001C12FA680A43C3F81C22064B054AD2F8F1
:101FB000002222F00102C3F800221437BD465DF86A
:101FC000047B70470064004080B483B000AF786049
:101FD0007B6800229A717B680022DA717B6800229C
:101FE0001A727B6800225A727B6800229A727B68A0
:101FF0000022DA727B6800229A707B680022DA7015
:102000007B6803221A717B6802225A717B68012265
:102010001A800C37BD465DF8047B704780B485B0EC
:1020200000AFF8600B467A60FB72FB7AFA681B33EC
:102030001B0113441B68DBB203F00403DAB27B68B4
:102040001A727B681B7A002B09D1FB7AFA681B3362
:102050001B0113441B685A0D7B681A6008E0FB7A69
:10206000FA681B331B0113441B68DA087B685A604B
:10207000FB7AFA681B331B0113441B68DBB203F0C5
:102080000203DAB27B685A72FB7AFA681B331B01CF
:1020900013445B68DBB203F00F03DAB27B689A7219
:1020A000FB7AFA681B331B0113445B681B0ADAB224
:1020B0007B68DA74FB7AFA681B01134403F5DC735E
:1020C0001B68DAB27B68DA72FB7AFA681B01134488
:1020D00003F5DC731B681B0ADAB27B681A73FB7AA0
:1020E000FA681B01134403F5DC731B681B0CDAB29E
:1020F0007B685A73FB7AFA681B01134403F5DC739F
:102100001B681B0EDAB27B689A73FB7AFA681B01B4
:10211000134403F5DC735B68DAB27B68DA73FB7A2D
:10212000FA681B01134403F5DC735B681B0ADAB21F
:102130007B681A74FB7AFA681B01134403F5DC739D
:102140005B681B0CDAB27B685A74FB7AFA681B0175
:10215000134403F5DC735B681B0EDAB27B689A7478
:10216000FB7A002B06D1FB68DB6843F02002FB689A
:10217000DA6005E0FB681B6943F02002FB681A6126
:102180001437BD465DF8047B704700BF80B483B050
:1021900000AF78600B46FB70FB78002B06D17B68A4
:1021A000DB6843F020027B68DA6005E07B681B692E
:1021B00043F020027B681A610C37BD465DF8047B52
:1021C000704700BF80B485B000AFF860B9601346B7
:1021D000FB71FB79002B06D0FB685A69BB681A4378
:1021E000FB685A6106E0FB685A69BB68DB431A402A
:1021F000FB685A611437BD465DF8047B704700BF29
:1022000080B584B000AF786039600023FB737B68D1
:102210005A693B681340002B00F0B2803B68402BAA
:1022200062D0402B0FD8042B3AD0042B04D8012BBA
:1022300024D0022B2BD09FE0102B43D0202B4AD050
:10224000082B36D098E0B3F5006F00F08380B3F52B
:10225000006F09D8B3F5007F6AD0B3F5806F70D0F6
:10226000B3F5807F5BD087E0B3F5803F45D0B3F511
:10227000003F4BD0B3F5004F75D07DE07B689B6885
:102280001846434900F0F4F80346FB7377E07B6897
:10229000DB681846032100F0EBF80346FB736EE0A1
:1022A0007B68DB681846082100F0E2F80346FB7300
:1022B00065E07B68DB681846102100F0D9F803461A
:1022C000FB735CE07B681B691846032100F0D0F8C3
:1022D0000346FB7353E07B681B691846082100F036
:1022E000C7F80346FB734AE07B681B691846102158
:1022F00000F0BEF80346FB7341E07B685B6818465C
:10230000082100F0B5F80346FB7338E07B685B6892
:102310001846102100F0ACF80346FB732FE07B68F1
:102320009B691846012100F0A3F80346FB7326E0E1
:102330007B689B691846022100F09AF80346FB73FC
:102340001DE07B689B691846042100F091F8034664
:10235000FB7314E07B689B691846702100F088F8D5
:102360000346FB730BE07B685B681846042100F0B2
:102370007FF80346FB7302E00023FB7300BF01E01C
:102380000023FB73FB7B18461037BD4680BD00BFA2
:102390000101010080B483B000AF786039603B6810
:1023A000B3F5807F43D0B3F5807F0DD8082B2AD0BA
:1023B000082B04D8012B1ED0042B20D051E0202B59
:1023C00025D0402B27D04CE0B3F5006F3BD0B3F5C0
:1023D000006F06D8B3F5007F2DD0B3F5806F2ED0F7
:1023E0003FE0B3F5803F1AD0B3F5003F1BD0B3F503
:1023F000004F2FD035E07B681C4A9A6031E07B6843
:102400000822DA602DE07B681022DA6029E07B6820
:1024100008221A6125E07B6810221A6121E07B689E
:1024200008225A601DE07B6810225A6019E07B6820
:1024300004225A6015E07B6804225A6011E07B6830
:1024400004225A600DE07B6800229A617B680422B6
:102450005A6006E07B6800229A617B6804225A6019
:1024600000BF0C37BD465DF8047B704701010100D9
:1024700080B485B000AF786039600023FB737A6860
:102480003B681340002B02D00123FB7301E00023C3
:10249000FB73FB7B18461437BD465DF8047B704721
:1024A00080B582B000AF0520012101F08FF83B1DFF
:1024B000184600F043F91823FB710123BB71402338
:1024C000BB803B1D0548194600F07CF80220012125
:1024D00001F09AF80837BD4680BD00BF00080140F2
:1024E00080B588B000AF1648FDF7D0FE022001216C
:1024F00001F08AF807F114031846FEF7E5F84723C0
:10250000BB8244F620633B8307F114030C48194651
:10251000FDF7D2FF3B1D1846FEF7F0F800237B8144
:102520006023BB800123FB803B1D05481946FEF755
:102530003FF803480121FEF703F92037BD4680BD6F
:102540000004004080B485B000AF0346FB80104B10
:10255000FA881A80FB884FF47A7202FB03F30D4A63
:1025600082FB03121A44D211DB17D31A9BB2C3F5B4
:1025700094433833FB81084AFB89C3F59C432033DD
:102580009BB293861437BD465DF8047B704700BF4D
:10259000002F0020B7600BB60004004080B582B069
:1025A00000AF0346FB80FB881846FFF7CBFF0837D8
:1025B000BD4680BD80B500AFFFF772FFFFF790FF0B
:1025C00080BD00BF80B489B000AF7860396000235F
:1025D000FB6100233B610023BB610023FB60002300
:1025E0007B610023BB603B68DB7803F00F03FB617A
:1025F0003B68DB7803F01003002B04D03B689B782A
:10260000FA691343FB613B681B88DBB2002B44D0A3
:102610007B681B687B610023BB6138E0BB690122DA
:1026200002FA03F3FB603B681B881A46FB68134001
:102630003B613A69FB689A4226D1BB699B00FB600B
:10264000FB680F2202FA03F3BB60BB68DB437A69C5
:1026500013407B61FB68FA6902FA03F37A6913435A
:102660007B613B68DB78282B05D1BB6901229A404E
:102670007B685A6108E03B68DB78482B04D1BB6972
:1026800001229A407B681A61BB690133BB61BB6957
:10269000072BC3D97B687A691A603B681B88FF2BBC
:1026A00046D97B685B687B610023BB613AE0BB690C
:1026B0000833012202FA03F3FB603B681B881A46C9
:1026C000FB6813403B613A69FB689A4227D1BB69BA
:1026D0009B00FB60FB680F2202FA03F3BB60BB6840
:1026E000DB437A6913407B61FB68FA6902FA03F302
:1026F0007A6913437B613B68DB78282B05D1BB6982
:10270000083301229A407B685A613B68DB78482B8A
:1027100005D1BB69083301229A407B681A61BB6905
:102720000133BB61BB69072BC1D97B687A695A60E9
:102730002437BD465DF8047B704700BF80B483B08A
:1027400000AF78607B684FF6FF721A807B680222C8
:102750009A707B680422DA700C37BD465DF8047B02
:10276000704700BF80B483B000AF78600B467B80B9
:102770007A887B681A610C37BD465DF8047B704728
:1027800080B483B000AF78600B467B807A887B682A
:102790005A610C37BD465DF8047B704780B483B046
:1027A00000AF78600B467B807B68DA687B885A4094
:1027B0007B68DA600C37BD465DF8047B704700BF6C
:1027C00080B487B000AF78600B46FB7000233B619C
:1027D0000023FB6000237B610023BB607B68002B30
:1027E00003DA2E4BDB697B6102E02C4B5B687B617B
:1027F0007B6803F470231B0CBB607B689BB23B615E
:102800007B6803F44013B3F5401F0AD17B6923F0C2
:1028100070637B61214B214A526822F070625A60DA
:1028200021E07B6803F48013002B0ED0BB680322E9
:1028300002FA03F3FB60FB68DB437A6913407B61B8
:102840007B6943F070637B610DE07B685B0D1B016E
:102850003A6902FA03F3DB437A6913407B617B69CF
:1028600043F070637B61FB78002B08D07B685B0DC5
:102870001B013A6902FA03F37A6913437B617B68AF
:10288000002B03DA054B7A69DA6102E0034B7A69BF
:102890005A601C37BD465DF8047B7047000001405C
:1028A00080B500AFFEF700FB064B1B6800229A7252
:1028B00000F0AAF901F0A4F9FEF734FA024B002265
:1028C0001A6080BD342F00206808002080B500AF5A
:1028D000364B1B6800229A72344B1B68344AD279FB
:1028E0005A72324B1B680022DA720020FEF7D8FBC6
:1028F00000204FF40071FEF7E5FB00201021FEF7E9
:1029000005FC00204021FEF7DDFC00208021FEF7C1
:10291000B9FC0020FEF78EFC264B93F82C300020EB
:102920001946FEF7EFFC0020FEF75CFC01200021B9
:10293000FEF7C8FB0120C021FEF7A4FC01202021E6
:10294000FEF7E4FB01200021FEF716FC02204FF405
:10295000C061FEF7B7FB02204FF48071FEF792FCD6
:1029600002200021FEF708FC02202021FEF7CEFB0A
:1029700003200021FEF7A6FB03204FF48871FEF729
:10298000A1FC03204021FEF7BDFC03204FF4405181
:10299000FEF7F2FB03200021FEF7B8FB0020FDF755
:1029A00031FC054B01221A6080BD00BF342F00208E
:1029B0007C4C0008400000206808002080B483B0F0
:1029C00000AF074B7B607B689B7A002B02D0054BE6
:1029D00005221A600C37BD465DF8047B704700BFC6
:1029E000142F00206808002080B400AF034B04229D
:1029F0001A60BD465DF8047B704700BF6808002080
:102A000080B500AF044B1B78202B04D1FEF7AEF944
:102A1000014B00221A7080BD6408002080B400AF12
:102A2000BD465DF8047B704780B584B000AF0346B7
:102A3000FB710023FB60FB79212B09D1164B1B682E
:102A40001B7803F07F03212B11D1144BFB600EE0A8
:102A5000FB79202B0BD1104B1B681B7803F07F03F5
:102A6000212B01D10E4BFB600E4B20221A70FB680C
:102A7000002B01D102230BE0074B1B68FA689A6117
:102A8000054B1B6800225A82FB68002098470023F0
:102A900018461037BD4680BD342F0020A12B0008FA
:102AA000D52B00086408002080B483B000AF034633
:102AB000FB710C4B1B681B7803F07F03212B09D1A2
:102AC000FB79022B01D1002305E0FB79222B01D1F8
:102AD000002300E0022318460C37BD465DF8047B56
:102AE000704700BF342F002080B582B000AF03468E
:102AF000FB80FB8818460449FDF760FB0346184637
:102B00000837BD4680BD00BF9400002080B582B06C
:102B100000AF0346FB80FB8818460449FDF74EFBD7
:102B2000034618460837BD4680BD00BF9C00002004
:102B300080B584B000AF0346FB800B4B1B68DB788D
:102B4000FB73FB7B042B01D9002309E0FB7BDA003C
:102B5000064B1344FA8810461946FDF72FFB03462F
:102B600018461037BD4680BD342F0020A400002039
:102B700080B483B000AF02460B46FA71BB71BB79DB
:102B8000002B01D0022305E0FB79012B01D90223A0
:102B900000E0002318460C37BD465DF8047B704703
:102BA00080B483B000AF0346FB80FB88002B05D1C7
:102BB000064B1B6808221A82002300E0044B1846CB
:102BC0000C37BD465DF8047B704700BF342F0020F2
:102BD0003400002080B483B000AF0346FB80FB8844
:102BE000002B05D1064B1B6808221A82002300E047
:102BF000044B18460C37BD465DF8047B704700BF98
:102C0000342F00203400002080B582B000AF0120B6
:102C1000FEF77EF80123FB800C4BFA881A600C4B00
:102C200000221A80094B0A4A12881A60094B0022B6
:102C30001A60074B4FF4E0521A80044B044A128882
:102C40001A60002318460837BD4680BD405C00402E
:102C5000382F0020445C004080B483B000AF0346AE
:102C60003960FB7197F90730002B0BDA0D49FB79BE
:102C700003F00F03043B3A68D2B21201D2B20B4404
:102C80001A7609E0084997F907303A68D2B212017A
:102C9000D2B20B4483F800230C37BD465DF8047BA9
:102CA000704700BF00ED00E000E100E080B582B0B9
:102CB00000AF78607B68B3F1807F01D3012311E01E
:102CC0000A4B7A6822F07F42013A5A604FF0FF3097
:102CD0000F21FFF7C1FF054B00229A60034B07222B
:102CE0001A60002318460837BD4680BD10E000E09A
:102CF00080B582B000AF0920012100F067FC0B48CD
:102D00000121FFF75DFD1823BB801023FB71032316
:102D1000BB713B1D06481946FFF754FC04481821B7
:102D2000FFF720FD0837BD4680BD00BF0002300020
:102D3000000C014080B582B000AF0920012100F0F5
:102D400045FC0B480121FFF73BFD1823BB801023F6
:102D5000FB710323BB713B1D06481946FFF732FC8C
:102D600004481821FFF70CFD0837BD4680BD00BFA1
:102D700000023000000C014080B588B000AF7860E0
:102D80002A4B00221A60042000F0E0FF07F10C0338
:102D9000184600F069FB7B68012B08D13A69244B87
:102DA000A3FB02139B0C1846FFF780FF32E07B6801
:102DB0000A2B09D13B695A091E4BA3FB0213DB09FD
:102DC0001846FFF773FF25E07B68642B08D13A694A
:102DD000194BA3FB02135B0B1846FFF767FF19E0C3
:102DE0007B68B3F57A7F08D13A69144BA3FB0213D1
:102DF0009B091846FFF75AFF0CE07A6842F21073FD
:102E00009A4207D13A690E4BA3FB02135B0918469D
:102E1000FFF74CFF4FF0FF300021FFF71DFF0A20A6
:102E200001F0BAF92037BD4680BD00BF740800200C
:102E300083DE1B43C55A7C0A5917B7D1D34D6210A4
:102E40001F85EB5180B400AF0B4B1B685A1C0A4B1B
:102E50001A60094B1A68094BA3FB02135B09642132
:102E600001FB03F3D31A002B02D1054B01221A6098
:102E7000BD465DF8047B7047740800201F85EB5148
:102E80007808002080B500AF4FF4E13001F044F93C
:102E9000642001F081F90348FEF766FE0248FEF760
:102EA00063FE80BD784D0008A44D000880B586B053
:102EB00000AFFDF773FE0A2001F06EF900F0C4FACE
:102EC0000346FB753B46184600F0CEFAFFF7DAFFE3
:102ED0003B6806481946FEF733FE7B6804481946EE
:102EE000FEF72EFE1837BD4680BD00BFD44D00084A
:102EF000F44D000880B400AF124B1B7803F00803B8
:102F0000002B18D0104B1B7803F00F031B029AB252
:102F10000E4B1B78DB08DBB213439AB2094B1B78CC
:102F20005B019BB2DBB29BB201339BB29BB21343FA
:102F30009BB29BB200E000231846BD465DF8047BBF
:102F4000704700BFE8FF0FE0D0FF0FE0E4FF0FE0A5
:102F500080B586B000AF00237B61FFF7A7FFFFF7C6
:102F6000C9FF03467B827A8A40F2A3739A4203D157
:102F70001F48FEF7F9FD04E07B8A1E481946FEF75C
:102F8000DFFD42F21070FFF7F7FE1B4B1B78002BA2
:102F900002D11A4B1A4A1A601A48FEF7D1FD174B94
:102FA0001B681846184900F007FA134B01221A70E3
:102FB000164800F09DF9FFF7FDFA00F0ABF9F86054
:102FC000FB6803F00103002B03D02D20FFF7E6FA86
:102FD00002E00020FFF7E2FAFB6803F00203002B97
:102FE00002D0FFF785FEE8E7FFF7A4FEE5E700BFA4
:102FF000C44E0008DC4E00087C080020442F00204E
:1030000000540040F04E0008801A0600A08601001F
:1030100080B590B000AF78600120012100F0D6FAB1
:103020000820012100F0D2FA4FF48073BB874823B7
:1030300087F83F30032387F83E3007F13C034948C7
:103040001946FFF7BFFA4FF40073BB87182387F8C0
:103050003F30032387F83E3007F13C0341481946CF
:10306000FFF7B0FA4FF4EA100121FFF7A9FB4FF088
:103070000070012100F0C8FA142387F838300023CB
:1030800087F83930002387F83A30012387F83B303E
:1030900007F13803184600F0F9FD33487968FEF768
:1030A0004FFD3248FEF7EAFD07F12C031846FEF704
:1030B0008BFF002387F83230002387F8333000235A
:1030C00087F83430002387F83530002387F836300E
:1030D000002387F83730002387F82E3007F10803E4
:1030E000184600F0C1F93B6921481946FEF728FD52
:1030F0007B68204A934211D01F4A93421AD01F4A3C
:10310000934223D11423BB85002387F82F300B2350
:1031100087F83030042387F8313017E01223BB855D
:10312000002387F82F300A2387F83030032387F8ED
:1031300031300BE00923BB85002387F82F300A23A9
:1031400087F83030032387F8313000BF07F12C03B4
:1031500006481946FEF7B4FD0948FEF705FD40375D
:10316000BD4680BD000C01400C4F000800640040CB
:103170003C4F000848E8010090D00300A086010001
:103180004C4F000880B584B000AF0023BB72002311
:10319000FB7201233B7300233B8000237B800023D1
:1031A000BB800023FB8000233B8101237B733B46D4
:1031B0001846FEF757FE0348FEF7D6FC1037BD460B
:1031C00080BD00BF644F000880B500AF054B0022F2
:1031D00083F88020044840F202410122FEF7F2FF0A
:1031E00080BD00BF6C2F00200064004080B500AFA0
:1031F00030480221FFF704F80346002B32D02D4857
:103200000221FFF7C7F82C4B0022C3F884202A4B79
:103210000022C3F88820284B002283F88C20264BFC
:10322000002283F88E20244B002283F89720224B23
:10323000002283F88F20204B002283F890201D4825
:1032400000211E4AFEF7EAFE1D48FEF78DFC1A4BD0
:1032500093F88030002B04D1174B012283F8802093
:1032600026E025E013484FF48061FEF7C9FF0346CE
:10327000002B07D0104B022283F880201148FEF764
:1032800073FC15E00B480421FEF7BAFF0346002B40
:1032900007D008480021FEF779FF0B48FEF764FCD1
:1032A00006E0054B002283F880200848FEF75CFC0E
:1032B00080BD00BF006400406C2F0020F02F002074
:1032C000005200080852000810520008205200085E
:1032D00080B400AF054B0022C3F89820034B0022B6
:1032E00083F88020BD465DF8047B70476C2F00207A
:1032F00080B582B000AF7860FCF732FF7868FFF7E6
:1033000087FEFFF73FFFFFF7E3FFFFF75DFF08379B
:10331000BD4680BD80B584B000AF0023BB602348AC
:1033200040F202410122FEF74DFF214B93F880301D
:10333000012B2BD11E4B93F88E30002B15D0002380
:10334000FB600BE01A4AFB6813448833DA79391DB5
:10335000FB680B441A70FB680133FB60144B93F855
:103360008E301A46FB689A42ECDC3B795A007B7936
:103370001343BB600E4B002283F8802000BF0B4834
:1033800002210022FEF71EFFBB680BE0084B93F8FA
:103390008030022B02D10748FEF7E6FB012000F047
:1033A000FBFEC2E718461037BD4680BD00640040F2
:1033B0006C2F00204052000880B588B000AF7860C4
:1033C00039601F4B7A681A604FF40010012100F039
:1033D0001BF90920012100F0F9F802200021FFF774
:1033E000EFF91C23FB77C023BB830323BB7707F1D3
:1033F0001C0314481946FFF7E5F8786800F088FDCB
:103400007868002100F068FE3B68FB6000233B8287
:103410004BF6FF737B820023BB824FF48063FB82F9
:103420004FF480433B8307F10C037868194600F0A2
:1034300091FD7868012100F04FFE2037BD4680BD28
:10344000442F0020000C014080B400AF054B5B68A6
:10345000DBB203F00C03DBB21846BD465DF8047B1B
:10346000704700BF0010024080B487B000AF7860A2
:1034700000237B6100233B610023FB600023BB60D2
:103480004D4B5B6803F00C037B617B69042B07D019
:10349000082B09D0002B34D17B68484A1A6034E0ED
:1034A0007B68464A1A6030E0434B5B6803F4701354
:1034B0003B61414B5B6803F48033FB603B699B0CD1
:1034C00002333B61FB68002B06D13B693C4A02FB9F
:1034D00003F27B681A6013E0374B5B6803F4003338
:1034E000002B06D03B69364A02FB03F27B681A6068
:1034F00006E03B69314A02FB03F27B681A6004E094
:1035000003E07B682D4A1A6000BF2B4B5B6803F019
:10351000F0037B617B691B097B612A4A7B69134449
:103520001B78DBB2BB607B681A68BB68DA407B68DB
:103530005A60214B5B6803F4E0637B617B691B0A83
:103540007B61204A7B6913441B78DBB2BB607B68DC
:103550005A68BB68DA407B689A60174B5B6803F473
:1035600060537B617B69DB0A7B61164A7B6913448C
:103570001B78DBB2BB607B685A68BB68DA407B684B
:10358000DA600D4B5B6803F440437B617B699B0B06
:103590007B610D4A7B6913441B78DBB2BB607B689F
:1035A000DA68BB68B2FBF3F27B681A611C37BD4670
:1035B0005DF8047B704700BF0010024000127A00E3
:1035C00000093D00C4000020D400002080B483B076
:1035D00000AF78600B46FB70FB78002B06D0094BE0
:1035E000084A91697A680A439A6106E0054B054AE0
:1035F00091697A68D2430A409A610C37BD465DF8FA
:10360000047B70470010024080B483B000AF786044
:103610000B46FB70FB78002B06D0094B084AD1699A
:103620007A680A43DA6106E0054B054AD1697A688F
:10363000D2430A40DA610C37BD465DF8047B70471F
:103640000010024080B483B000AF78600B46FB707E
:10365000FB78002B06D0094B084AD1687A680A43E8
:10366000DA6006E0054B054AD1687A68D2430A4021
:10367000DA600C37BD465DF8047B704700100240ED
:1036800080B483B000AF78600B46FB70FB78002BF2
:1036900006D0094B084A11697A680A431A6106E0A4
:1036A000054B054A11697A68D2430A401A610C3702
:1036B000BD465DF8047B70470010024080B483B0C3
:1036C00000AF7860034B7A685A610C37BD465DF8ED
:1036D000047B70470004014080B485B000AF78607F
:1036E0000023FB730023BB600C4B1A687B681340FC
:1036F000BB600A4B5A697B681340002B05D0BB683E
:10370000002B02D00123FB7301E00023FB73FB7B42
:1037100018461437BD465DF8047B7047000401402D
:1037200080B483B000AF7860034B7A685A610C377D
:10373000BD465DF8047B70470004014080B483B04F
:1037400000AF78600B46FB70FB78002B06D07B68DF
:103750009B6843F4A0027B689A6005E07B689B68E5
:1037600023F4A0027B689A600C37BD465DF8047BA9
:10377000704700BF80B483B000AF78607B68DB6CBB
:103780009BB218460C37BD465DF8047B704700BFFE
:1037900080B485B000AF78600B46FB700023FB73EC
:1037A0007B681A68FB781340002B02D00123FB735F
:1037B00001E00023FB73FB7B18461437BD465DF820
:1037C000047B704780B58CB000AF7860396000230F
:1037D000FB620023BB6200237B6200233B62002369
:1037E000FB617B68FB617B681B8A9BB2FB62FA6AA8
:1037F0004CF6FF731340FB623B68DB88FA6A1343A5
:10380000FB62FB6A9AB27B681A827B689B899BB2D7
:10381000FB62FA6A4EF6F3131340FB623B689A8828
:103820003B681B8913439AB23B685B8913439BB285
:10383000FA6A1343FB62FB6A9AB27B689A817B68DF
:103840009B8A9BB2FB62FA6A4FF6FF431340FB620E
:103850003B689B89FA6A1343FB62FB6A9AB27B68F6
:103860009A8207F108031846FFF7FEFDFA69304B0C
:103870009A4202D17B69BB6201E03B69BB627B6813
:103880009B899BB29BB21BB2002B0CDABA6A13461F
:103890009B0013449A001A443B681B685B00B2FB10
:1038A000F3F37B620BE0BA6A13469B0013449A0061
:1038B0001A443B681B689B00B2FBF3F37B627A6A95
:1038C0001C4BA3FB02135B091B01FB62FB6A1B0978
:1038D000642202FB03F37A6AD31A3B627B689B89FA
:1038E0009BB29BB21BB2002B0DDA3B6ADB0003F1EB
:1038F0003202104BA3FB02135B0903F00703FA6AC1
:103900001343FB620CE03B6A1B0103F13202094BDB
:10391000A3FB02135B0903F00F03FA6A1343FB6274
:10392000FB6A9AB27B681A813037BD4680BD00BF02
:10393000003801401F85EB5180B483B000AF786040
:103940000B46FB70FB78002B08D07B689B899BB2F1
:1039500043F400539AB27B689A8107E07B689B89A5
:103960009BB223F400539AB27B689A810C37BD4610
:103970005DF8047B704700BF80B487B000AF78600B
:1039800013460A467A807B7000233B610023FB606C
:103990000023BB6000237B617B687B617B88DBB29B
:1039A0005B09DBB23B617B8803F01F03FB60FB68B4
:1039B000012202FA03F3BB603B69012B03D17B694F
:1039C0000C337B6109E03B69022B03D17B69103327
:1039D0007B6102E07B6914337B617B78002B06D02E
:1039E0007B697A691168BA680A431A6006E07B69E4
:1039F0007A691168BA68D2430A401A601C37BD461A
:103A00005DF8047B704700BF80B483B000AF78607E
:103A10000B467B807B88C3F308039AB27B689A804D
:103A20000C37BD465DF8047B704700BF80B483B09F
:103A300000AF78607B689B889BB2C3F308039BB29E
:103A400018460C37BD465DF8047B704780B485B0DE
:103A500000AF78600B467B800023FB737B681B887C
:103A60009AB27B8813409BB2002B02D00123FB73D8
:103A700001E00023FB73FB7B18461437BD465DF85D
:103A8000047B704780B487B000AF78600B467B80C2
:103A90000023FB6000237B610023BB600023FB74D9
:103AA0007B88DBB25B09DBB2BB607B8803F01F0362
:103AB0007B617B69012202FA03F37B61BB68012B06
:103AC00006D17B689B899BB27A6913407B610FE0CA
:103AD000BB68022B06D17B681B8A9BB27A691340B4
:103AE0007B6105E07B689B8A9BB27A6913407B61AE
:103AF0007B881B0A9BB2FB60FB68012202FA03F37E
:103B0000FB607B681B889BB2FA681340FB607B6993
:103B1000002B05D0FB68002B02D00123FB7401E0D1
:103B20000023FB74FB7C18461C37BD465DF8047B04
:103B3000704700BF80B485B000AF78600B467B80D3
:103B40000023FB810023BB817B881B0AFB81FB894F
:103B5000012202FA03F3BB81BB89DB439AB27B6883
:103B60001A801437BD465DF8047B704780B500AFFE
:103B70002048602100F076F90346002B38D000BFC2
:103B80001C48012100F052F90346002BF8D01948D7
:103B900000F03EF903461A46174B5A80164B9B68B5
:103BA000012B10D1144B5B681A04134B5B881A432A
:103BB000114B5A60104B00229A600F4BDB685A1C65
:103BC0000D4BDA6007E00C4B5B881A460A4B5A60D3
:103BD000094B01229A60084B9A68074B5B8807489B
:103BE00011461A46FDF7ACFF0248602100F076F955
:103BF00080BD00BF00380040083000208852000817
:103C000080B400AF084B00221A60084B4FF43F42CB
:103C10001A80074B054A12881A6000231846BD46D1
:103C20005DF8047B704700BF445C0040382F0020E3
:103C3000405C004080B500AF2020FFF74DFD0346FB
:103C4000002B05D02020FFF739FD024B01221A601E
:103C500080BD00BF3030002080B500AF4FF4004081
:103C6000FFF73AFD0346002B0BD006484FF4804186
:103C7000FEF794FD044B01221A704FF40040FFF749
:103C80004FFD80BD001001403830002080B487B067
:103C900000AF786000237B6100233B610F23FB6052
:103CA0007B68DB78002B38D0264BDB68DB4303F4E2
:103CB000E0631B0A7B617B69C3F104033B617B69A1
:103CC000FA6822FA03F3FB607B685B781A463B696B
:103CD00002FA03F37B617B689B781A46FB6813400A
:103CE0007A6913437B617B691B017B6116497B68A1
:103CF0001B787A69D2B20B4483F80023124B7A689E
:103D000012785209D2B27968097801F01F010120B6
:103D100000FA01F143F822100EE00B4B7A6812789A
:103D20005209D2B27968097801F01F01012000FA26
:103D300001F1203243F822101C37BD465DF8047BA8
:103D4000704700BF00ED00E000E100E080B483B008
:103D500000AF78607B68042B06D1094B084A1268D3
:103D600042F004021A6005E0054B054A126822F091
:103D700004021A600C37BD465DF8047B704700BF33
:103D800010E000E080B500AF1E480121FCF7F8FC10
:103D90000346002B35D01B480121FCF71BFD1A48B8
:103DA0000121FFF7CBFC00BF17480221FFF7F0FC11
:103DB0000346002BF8D01448FFF7DCFC03461A46F4
:103DC000124BA3F82C22114B9B69DBB20F4AB2F8BD
:103DD0002C220E4914335B000B449A800B4B9B69D9
:103DE0005A1C0A4B9A6108480021FFF7A7FC074BB1
:103DF0009A69064BDB699A4203D302480021FCF71B
:103E00009FFC80BD00040040002401408008002089
:103E100080B483B000AF78607B689B899BB2184602
:103E20000C37BD465DF8047B704700BF80B485B099
:103E300000AF78600B467B800023FB737B681B8997
:103E40009AB27B8813409BB2002B02D00123FB73F4
:103E500001E00023FB73FB7B18461437BD465DF879
:103E6000047B704780B485B000AF78600B46FB7070
:103E70000023FB730023BB8100237B8100233B8154
:103E8000FB7803F00F03012202FA03F3BB81FB78F6
:103E90001B09DBB27B817B89012202FA03F37B8160
:103EA0007B689B889AB27B8913403B817B681B8926
:103EB0009AB2BB8913409BB2002B05D03B89002BE3
:103EC00002D00123FB7301E00023FB73FB7B184648
:103ED0001437BD465DF8047B704700BF80B485B0E1
:103EE00000AF78600B46FB700023FB81FB7803F08A
:103EF0000F03012202FA03F3FB81FB89DB439AB231
:103F00007B681A811437BD465DF8047B704700BF9B
:103F100080B582B000AF78607A680D4B9A420AD1C2
:103F20004FF400100121FFF7ABFB4FF4001000210C
:103F3000FFF7A6FB09E04FF480000121FFF7A0FB8B
:103F40004FF480000021FFF79BFB0837BD4680BD82
:103F50000054004080B58AB000AF7860396000231B
:103F6000FB8400237B840423BB84574BFB617B6869
:103F70009B88FB84FB8C23F03F03FB8407F1080341
:103F80001846FFF771FA3B69FB61FA694F4BA3FBD7
:103F900002139B0C7B84FA8C7B8C1343FB847B6821
:103FA000FA8C9A807B681B889BB223F001039AB23B
:103FB0007B681A800023FB843B681A68444B9A4252
:103FC00015D83B681B685B00FA69B2FBF3F3BB844E
:103FD000BB8C032B01D80423BB84FA8CBB8C13430A
:103FE000FB847B8C01339AB27B681A8440E03B6887
:103FF000DA884BF6FF739A4209D13B681A68134678
:104000005B001344FA69B2FBF3F3BB840EE03B6838
:104010001A6813469B0013449A001344FA69B2FBD2
:10402000F3F3BB84BB8C43F48043BB84BB8CC3F3EE
:104030000B03002B03D1BB8C43F00103BB84BA8C70
:10404000FB8C13439BB26FEA43436FEA5343FB84F9
:104050007B8C4FF4967202FB03F31E4A82FB031221
:104060009211DB17D31A9BB201339AB27B681A8480
:104070007B68FA8C9A837B681B889BB243F00103B0
:104080009AB27B681A807B681B88FB84FB8C23F4C4
:10409000816323F00203FB843B689A883B685B8959
:1040A00013439AB2FB8C1343FB847B68FA8C1A800F
:1040B0003B689A893B681B8913439AB27B681A81D3
:1040C0002837BD4680BD00BF00127A0083DE1B4347
:1040D000A0860100D34D621080B483B000AF786039
:1040E0000B46FB70FB78002B08D07B681B889BB2CB
:1040F00043F001039AB27B681A8007E07B681B8853
:104100009BB223F001039AB27B681A800C37BD463C
:104110005DF8047B704700BF80B588B000AF786061
:1041200044F204000121FFF751FA4FF40073BB83FE
:104130001823FB770323BB7707F11C0314481946A8
:10414000FEF740FA4FF48063BB830423FB7707F14B
:104150001C030F481946FEF735FA4FF4E133FB60B4
:1041600000233B8200237B820023BB8200233B830E
:104170000C23FB8207F10C0306481946FFF722FBCC
:1041800004480121FFF7D8FB2037BD4680BD00BFA2
:10419000000801400038014080B483B000AF78606F
:1041A0007B6842F6E06202FB03F37B607B681846A3
:1041B0000138FDD80C37BD465DF8047B704700BF61
:1041C0004BB942B9002908BF002802D04FF0FF3197
:1041D000084600F03BB882B0EC462DE9005000F0F4
:1041E0001DF8DDF804E002B00CBC70472DE9704FFB
:1041F000089E14461D468046894600F029F804FBB7
:1042000001F3A4FB00AB00FB05329344B8EB0A08B2
:1042100069EB0B09C6E90089BDE8708F2DE9704F85
:10422000089E14461D468046894600F061F900FB51
:1042300005F5A0FB04AB04FB0154A344B8EB0A084A
:1042400069EB0B09C6E90089BDE8708F704700BFB4
:1042500000292DE9F00FC0F2A1800024002BC0F24C
:104260009880154606460F46002B3FD18A4258D902
:10427000B2FA82F34BB1C3F1200201FA03F720FA3C
:1042800002F29D4000FA03F61743290CB7FBF1F246
:1042900001FB1277A8B200FB02F34FEA164C4CEA7E
:1042A0000747BB4209D97F1902F1FF3C80F0058125
:1042B000BB4240F20281023A2F44FF1AB7FBF1F3EE
:1042C00001FB137100FB03F0B6B246EA01418842DC
:1042D00008D9491903F1FF3780F0F180884240F294
:1042E000EE80023B43EA0242002303E08B420AD9FC
:1042F00000231A461046194614B1404261EB4101B1
:10430000BDE8F00F7047B3FA83F8B8F1000F40F042
:1043100088808B4202D3824200F2E2800023012295
:10432000E8E712B90123B3FBF2F5B5FA85F2002AEA
:104330003AD17F1B280C1FFA85FC0123B7FBF0F153
:1043400000FB11770CFB01F24FEA164848EA0747D9
:10435000BA4207D97F1901F1FF3802D2BA4200F2FE
:10436000C4804146BF1AB7FBF0F200FB12700CFB91
:1043700002FCB6B246EA0040844507D9401902F172
:10438000FF3702D2844500F2AE803A4642EA01424B
:10439000B0E7E443524263EB430362E7404261EB20
:1043A00041014FF0FF3459E79540C2F1200927FA47
:1043B00009F126FA09F99740280CB1FBF0F800FB47
:1043C00018111FFA85FC0CFB08F349EA07094FEAAC
:1043D000194747EA01418B4206FA02F608D9491902
:1043E00008F1FF327AD28B4278D9A8F10208294429
:1043F000C91AB1FBF0F300FB13170CFB03F21FFA11
:1044000089F949EA0747BA4207D97F1903F1FF3111
:1044100060D2BA425ED9023B2F44BF1A43EA084336
:104420008CE7C8F1200225FA02F103FA08FC27FA0A
:1044300002F320FA02F207FA08F741EA0C0C4FEAFD
:104440001C49B3FBF9F109FB11331FFA8CFA0AFB83
:1044500001FB17433A0C42EA03439B4505FA08F077
:1044600008D913EB0C0301F1FF3235D29B4533D948
:1044700002396344CBEB0303B3FBF9F209FB1233BC
:104480000AFB02FABFB247EA0347BA4508D917EB5D
:104490000C0702F1FF331BD2BA4519D9023A67441F
:1044A00042EA0145A5FB0001CAEB07078F424FF026
:1044B00000030AD305D02A461CE76246FDE63B46C8
:1044C00010E706FA08F68642F5D26A1E002311E7C5
:1044D0001A46E5E70B46A0E71146CBE7904687E78B
:1044E0004346424606E7023A50E702392F4439E78D
:1044F0002DE9F00F144605460E46002B43D18A42A3
:1045000053D9B2FA82F757B1C7F1200620FA06F65E
:1045100001FA07F302FA07F400FA07F51E43210C2B
:10452000B6FBF1F201FB1266A0B200FB02F32F0C06
:1045300047EA0646B34209D9361902F1FF3780F03F
:10454000FD80B34240F2FA80023A2644F61AB6FBE6
:10455000F1F301FB136100FB03F0ADB245EA014149
:10456000884208D9091903F1FF3680F0E9808842B2
:1045700040F2E680023B43EA02420023104619461D
:10458000BDE8F00F70478B424CD8B3FA83F6002E8B
:104590004FD18B4202D3824200F2DD80BDE8F00FA2
:1045A0000023012210461946704712B90124B4FBBA
:1045B000F2F4B4FA84F2002A40F08280091B260C3F
:1045C000A7B20123B1FBF6F006FB101107FB00F2C6
:1045D0004FEA154C4CEA01418A4207D9091900F10A
:1045E000FF3C02D28A4200F2C8806046891AB1FBC1
:1045F000F6F206FB121107FB02F7ADB245EA0145E0
:10460000AF4208D92C1902F1FF3180F09B80A742FC
:1046100040F29880023A42EA004210461946BDE84C
:10462000F00F704700231A4610461946BDE8F00FF8
:104630007047C6F1200522FA05F703FA06F421FABD
:1046400005F301FA06FB20FA05F53C434FEA14484E
:10465000B3FBF8FC08FB1C331FFA84F909FB0CFAC6
:1046600045EA0B0B4FEA1B4545EA03439A4502FA1C
:1046700006F204D91B190CF1FF356FD3AC46CAEB17
:104680000303B3FBF8F508FB153309FB05F91FFA23
:104690008BFB4BEA0347B94504D93F1905F1FF33BA
:1046A00062D31D4645EA0C4CACFB0223C9EB07075D
:1046B0009F424FF000054AD346D062462B465DE745
:1046C0009440C2F1200921FA09FC914020FA09F92D
:1046D000260CBCFBF6F806FB18CCA7B207FB08F3C8
:1046E00049EA01094FEA194141EA0C4C634500FAD5
:1046F00002F509D91CEB040C08F1FF323BD26345EB
:1047000039D9A8F10208A444C3EB0C0CBCFBF6F3A6
:1047100006FB13C107FB03F21FFA89F949EA0141BD
:104720008A4207D9091903F1FF3022D28A4220D9DF
:10473000023B2144891A43EA084343E73A4605E726
:10474000334618E70A4666E7B0409042B5D20CF10E
:10475000FF32002312E7334632460FE79A458DD9E0
:10476000ACF1020C23448AE7B9459AD9023D2744AB
:1047700098E70346DEE79046C6E70238214435E76E
:1047800080EA0102844612F0030F4FD111F0030FAB
:1047900032D14DF8044D11F0040F51F8043B0BD009
:1047A000A3F101329A4312F0803F04BF4CF8043B5E
:1047B00051F8043B16D100BF51F8044BA3F101326C
:1047C0009A4312F0803FA4F101320BD14CF8043B24
:1047D000A24312F0803F04BF51F8043B4CF8044B55
:1047E000EAD023460CF8013B13F0FF0F4FEA3323C6
:1047F000F8D15DF8044B704711F0010F06D011F8A5
:10480000012B0CF8012B002A08BF704711F0020F92
:10481000BFD031F8022B12F0FF0F16BF2CF8022B7D
:104820008CF8002012F47F4FB3D1704711F8012BA0
:104830000CF8012B002AF9D1704700BF20F00301CA
:1048400010F00300C0F1000051F8043B00F1040C2B
:104850004FEACC0C6FF000021CBF22FA0CF213439B
:104860004FF0010C4CEA0C2C4CEA0C4CA3EB0C0264
:1048700022EA030212EACC1204BF51F8043B0430CE
:10488000F4D013F0FF0F1FBF013013F47F4F01303E
:1048900013F47F0F18BF0130704700BF024B13B1F4
:1048A000024800F005B8704700000000BD4800084D
:1048B000014600200246034600F018B838B5094DFD
:1048C000094C641BA41018BF05EB840505D0013CFE
:1048D00055F8043D9847002CF9D1BDE8384000F068
:1048E0005FB800BF0C05002010050020F0B5274C74
:1048F00085B026680746D6F84841002C40D0656848
:104900001F2D1EDD224818B94FF0FF3005B0F0BD55
:104910004FF4C870039102920193AFF300800399A2
:104920000446029A019B0028EED0D6F84851002098
:10493000256060600546C6F84841C4F88801C4F89F
:104940008C013FB96B1C00200235636044F82510D0
:1049500005B0F0BD0126AE4004EB8500C0F888200C
:10496000D4F88821022F42EA0602C4F88821C0F850
:104970000831E7D1D4F88C311E43C4F88C61E1E7EB
:1049800006F5A674C6F84841B9E700BFF45200081E
:1049900000000000F8B500BFF8BC08BC9E46704798
:1049A000F8B500BFF8BC08BC9E4670474D3E536545
:1049B0006E742869643D307825303278290D0A00FC
:1049C000533E53656E742869643D307825303278E3
:1049D000290D0A004D3E476F742061207265737087
:1049E0006F6E73650D0000004D3E5278446F6E652A
:1049F0002E204E656564206D6F726520646574615C
:104A0000696C65642070617273696E672E2E2E0D5D
:104A1000000000005B25645D3D3078253032782051
:104A2000000000000D0000004E6F526573700D0015
:104A3000476F746F20536C656570207769746820C8
:104A4000454E3D300D00000057616B657570207755
:104A500069746820454E3D310D000000533E5258A8
:104A60000D000000533E5273702849643D2578299B
:104A70003A00000001020304050607084D3E476F97
:104A800074206120726573706F6E73652066726F3B
:104A90006D2074686520536C617665203D200000B0
:104AA0002530327820000000533E57726F6E672029
:104AB0004C656E67746820446973636172640D00AD
:104AC000533E476F74206120726571756573742061
:104AD00066726F6D20746865204D61737465722015
:104AE0003D2000004C494E20436F6E666967207779
:104AF0006974682055534152543220616E642049D4
:104B0000525120285041322F504133290D000000CE
:104B10004D616B65204C494E20656E61626C65206D
:104B200028504231303D31290D0000005B35355DA4
:104B30000000000047657420436861722E204275B2
:104B400074206E6F2053796E6320436F646500009C
:104B500028253032782900002025303278000000E6
:104B6000240D00004572726F72203A20546F6F203E
:104B70006C6F6E6720646174612E2E2E52657365B2
:104B8000740D0000446F204D6F746F7220436F6E80
:104B900074726F6C203A20466F72776172640D00F8
:104BA000446F204D6F746F7220436F6E74726F6C20
:104BB000203A204261636B776172640D000000004F
:104BC000446F204D6F746F7220436F6E74726F6C00
:104BD000203A20537065656455700D00446F204D78
:104BE0006F746F7220436F6E74726F6C203A205333
:104BF00070656564446F776E0D000000446F204D52
:104C00006F746F7220436F6E74726F6C203A203F26
:104C10003F3F0D00533E5278282578293A00000086
:104C2000496E76616C69640D000000004C494E20AD
:104C30004D617374657220546573742E0D0000000D
:104C400000400000000002000400000020000000FE
:104C500004000000200000000002200000044000CA
:104C600048656C6C6F0000001201000202000040F9
:104C700083044057000201020301000009024300BF
:104C8000020100C0320904000001020201000524F3
:104C9000001001052401000104240202052406007D
:104CA00001070582030800FF09040100020A000051
:104CB00000070503024000000705810240000000D4
:104CC000040309042603530054004D0069006300E7
:104CD00072006F0065006C00650063007400720074
:104CE0006F006E0069006300730000003203530020
:104CF00054004D003300320020005600690072005D
:104D00007400750061006C00200043004F004D00EE
:104D1000200050006F00720074002000200000008E
:104D2000737464696F2E633A20696E637265617390
:104D300065204D41585F535452494E475F53495A7D
:104D4000450A0D0030313233343536373839414277
:104D50004344454630313233343536373839616271
:104D6000636465662D2D2D2D4153534552542825DE
:104D700073290D0A000000003D3D3D3D3D3D3D3D98
:104D80003D3D3D3D3D2048454C4C4F204B4F4E470F
:104D9000203D3D3D3D3D3D3D3D3D3D3D3D3D3D3D60
:104DA0003D0D00003D3D3D3D3D3D3D20666F722087
:104DB00050726163746963616C2044617461436F14
:104DC0006D6D203D3D3D3D3D3D3D3D3D3D3D3D3DD0
:104DD0003D0D000053544D3332463130333A535970
:104DE00053434C4B3D25642862652037324D487A49
:104DF0002900000048434C4B2862652037324D485B
:104E00007A293D25642C4853455F467265713D38CB
:104E10004D487A200D0A000025303375206D6D0055
:104E2000494E49542E2E0000524F55544500000063
:104E3000434C494D42000000435255495345000040
:104E400044455343454E5400455845435554450049
:104E500049324320496E69742E2E2E00446F6E65D0
:104E60002E0D0000253032753D2825753A2575290F
:104E700028726F772C636F6C29204B6579205072F4
:104E8000657373656420282563290D0A00000000FE
:104E90002825753A2575293D256300002530327592
:104EA0003D2825753A25752928726F772C636F6C1C
:104EB00029204B657920556E507265737365640DBA
:104EC0000A0000004D4355206973204744333246A1
:104ED000313033433854360D000000004D43552027
:104EE00069732053544D283431292025780D0A0048
:104EF0004932437820496E69742077697468203498
:104F000030304B6270732E2E2E00000043414E3124
:104F10002825752062707329203A205042383D526E
:104F2000582C205042393D54582C20576974682021
:104F30005258204952510D0A0000000050434C4B7A
:104F400031203D202575487A0D0A000073746D43A9
:104F5000414E3E20436F6E66696720446F6E652E3A
:104F60000D00000073746D43414E3E204163636544
:104F70007074416C6C46696C7465725769746846EC
:104F800069666F302E0D000073746D43414E3E20F4
:104F900041647646696C74657257697468466966DF
:104FA0006F302E0D0000000073746D43414E3E20A3
:104FB00046696C7465722030203D206163636570C2
:104FC00074206F6E6C79203078303535350D0000E7
:104FD00073746D43414E3E2046696C746572203196
:104FE000203D20616363657074206F6E6C792030A2
:104FF00078303636360D000073746D43414E3E20D6
:1050000046696C7465722032203D2061636365706F
:1050100074206F6E6C79203078303137430D00008A
:1050200073746D43414E3E2046696C746572203343
:10503000203D206469737265676172642030783046
:105040003137440D0000000054783A557365644DC3
:10505000626F784E756D3D25750D0A0043414E3ED9
:10506000205478204661696C28657272436F6465CC
:105070003D307834303A2043414E5F4572726F7252
:10508000436F64655F4269745265636573736976E3
:1050900065457272290D000043414E3E2054782030
:1050A0004661696C28657272436F64653D3078357E
:1050B000303A20426974446F6D696E616E74457256
:1050C00072290D0043414E3E205478204661696CA0
:1050D00028657272436F64653D307833303A2043FF
:1050E000414E5F4572726F72436F64655F41434B1F
:1050F000457272290D00000043414E3E2054782035
:105100004661696C28657272436F64653D3078361C
:10511000303A2043414E5F4572726F72436F64654F
:105120005F435243457272290D00000043414E3ED9
:10513000205478204661696C28657272436F6465FB
:105140003D307825303278290D0A000043414E3E2B
:10515000205478446F6E652E0D00000043414E3E92
:105160002053656E645F4578742E0D0052583E459D
:105170007874656E7465644D736749443D30782575
:10518000303478286C656E3D2575292000000000BC
:1051900052583E5374616E646172644D7367494442
:1051A0003D307825303478286C656E3D2575292092
:1051B00000000000446174613D0000002530327839
:1051C00020000000203A205245544D4F54452046BF
:1051D0005245414D45200D00203A204E4F524D4141
:1051E0004C20465245414D45200D000043414E3E66
:1051F0002052782053756363282575290D0A000015
:105200005258204952510D004275734F66660D0089
:105210004649464F2052656C656173650D0000007C
:10522000556E6B6E6F776E204952510D0000000075
:1052300043414E5F495420436F6E6669670D00001D
:1052400043414E3E20527820427573204F66662EB1
:105250002E2E0D004172696E63343239205465730D
:105260007420776974682053504932204D6F64650B
:1052700020312C203130304B6270732C2038626921
:105280007420646174612E0052282575293D3078A0
:10529000253034780D0A00004172696E633432396A
:1052A000205265636569766572207769746820535A
:1052B000504932204D6F646520312C203130304B05
:1052C0006270732C203862697420646174612E00EE
:1052D000526376204152494E47343239204D73672C
:1052E000282575293D3078253038780D0A000000D2
:0852F00043000000D80000207B
:0852F80058EFFF7F01000000E8
:105300000038014000440040000801400014014002
:1053100000080140001401401A03530054004D00DE
:105320003300320000000000000000000000000018
:105330000000000000C2010000000800040100009D
:10534000A1280008CD280008012A00081D2A00080D
:10535000292A0008A92A0008712B0008E92A000858
:105360000D2B0008312B0008000000004000000059
:1053700081020008BD29000881020008810200089E
:1053800081020008810200088102000881020008F1
:10539000E9290008684C0008120000007C4C000855
:1053A00043000000C04C000804000000C44C00088A
:1053B00026000000EC4C000832000000180000201D
:1053C0001A000000000000000102030401020304AF
:1053D000060708090204060800000000C4030020B4
:1053E0002C040020940400200000000000000000B5
:1053F00000000000000000000000000000000000AD
:10540000000000000000000000000000F052000852
:10541000000000000000000000000000000000008C
:10542000000000000000000000000000000000007C
:10543000000000000000000000000000000000006C
:10544000000000000000000000000000000000005C
:10545000000000000000000000000000000000004C
:10546000000000000000000000000000000000003C
:10547000000000000000000000000000000000002C
:1054800001000000000000000E33CDAB34126DE6C9
:10549000ECDE05000B000000000000000000000032
:1054A00000000000000000000000000000000000FC
:1054B00000000000000000000000000000000000EC
:1054C00000000000000000000000000000000000DC
:1054D00000000000000000000000000000000000CC
:10580000D80000209D480008310100080D01000863
:045810000000000094
:0400000508000000EF
:00000001FF
